{
  "_format": "hh-sol-artifact-1",
  "contractName": "CampusCredit",
  "sourceName": "contracts/CampusCredit.sol",
  "abi": [
    {
      "inputs": [],
      "stateMutability": "nonpayable",
      "type": "constructor"
    },
    {
      "inputs": [],
      "name": "AccessControlBadConfirmation",
      "type": "error"
    },
    {
      "inputs": [
        {
          "internalType": "address",
          "name": "account",
          "type": "address"
        },
        {
          "internalType": "bytes32",
          "name": "neededRole",
          "type": "bytes32"
        }
      ],
      "name": "AccessControlUnauthorizedAccount",
      "type": "error"
    },
    {
      "inputs": [
        {
          "internalType": "address",
          "name": "spender",
          "type": "address"
        },
        {
          "internalType": "uint256",
          "name": "allowance",
          "type": "uint256"
        },
        {
          "internalType": "uint256",
          "name": "needed",
          "type": "uint256"
        }
      ],
      "name": "ERC20InsufficientAllowance",
      "type": "error"
    },
    {
      "inputs": [
        {
          "internalType": "address",
          "name": "sender",
          "type": "address"
        },
        {
          "internalType": "uint256",
          "name": "balance",
          "type": "uint256"
        },
        {
          "internalType": "uint256",
          "name": "needed",
          "type": "uint256"
        }
      ],
      "name": "ERC20InsufficientBalance",
      "type": "error"
    },
    {
      "inputs": [
        {
          "internalType": "address",
          "name": "approver",
          "type": "address"
        }
      ],
      "name": "ERC20InvalidApprover",
      "type": "error"
    },
    {
      "inputs": [
        {
          "internalType": "address",
          "name": "receiver",
          "type": "address"
        }
      ],
      "name": "ERC20InvalidReceiver",
      "type": "error"
    },
    {
      "inputs": [
        {
          "internalType": "address",
          "name": "sender",
          "type": "address"
        }
      ],
      "name": "ERC20InvalidSender",
      "type": "error"
    },
    {
      "inputs": [
        {
          "internalType": "address",
          "name": "spender",
          "type": "address"
        }
      ],
      "name": "ERC20InvalidSpender",
      "type": "error"
    },
    {
      "inputs": [],
      "name": "EnforcedPause",
      "type": "error"
    },
    {
      "inputs": [],
      "name": "ExpectedPause",
      "type": "error"
    },
    {
      "anonymous": false,
      "inputs": [
        {
          "indexed": true,
          "internalType": "address",
          "name": "owner",
          "type": "address"
        },
        {
          "indexed": true,
          "internalType": "address",
          "name": "spender",
          "type": "address"
        },
        {
          "indexed": false,
          "internalType": "uint256",
          "name": "value",
          "type": "uint256"
        }
      ],
      "name": "Approval",
      "type": "event"
    },
    {
      "anonymous": false,
      "inputs": [
        {
          "indexed": false,
          "internalType": "address",
          "name": "student",
          "type": "address"
        },
        {
          "indexed": false,
          "internalType": "uint256",
          "name": "limit",
          "type": "uint256"
        }
      ],
      "name": "DailyLimitSet",
      "type": "event"
    },
    {
      "anonymous": false,
      "inputs": [
        {
          "indexed": false,
          "internalType": "address",
          "name": "merchant",
          "type": "address"
        },
        {
          "indexed": false,
          "internalType": "string",
          "name": "name",
          "type": "string"
        }
      ],
      "name": "MerchantRegistered",
      "type": "event"
    },
    {
      "anonymous": false,
      "inputs": [
        {
          "indexed": false,
          "internalType": "address",
          "name": "account",
          "type": "address"
        }
      ],
      "name": "Paused",
      "type": "event"
    },
    {
      "anonymous": false,
      "inputs": [
        {
          "indexed": true,
          "internalType": "bytes32",
          "name": "role",
          "type": "bytes32"
        },
        {
          "indexed": true,
          "internalType": "bytes32",
          "name": "previousAdminRole",
          "type": "bytes32"
        },
        {
          "indexed": true,
          "internalType": "bytes32",
          "name": "newAdminRole",
          "type": "bytes32"
        }
      ],
      "name": "RoleAdminChanged",
      "type": "event"
    },
    {
      "anonymous": false,
      "inputs": [
        {
          "indexed": true,
          "internalType": "bytes32",
          "name": "role",
          "type": "bytes32"
        },
        {
          "indexed": true,
          "internalType": "address",
          "name": "account",
          "type": "address"
        },
        {
          "indexed": true,
          "internalType": "address",
          "name": "sender",
          "type": "address"
        }
      ],
      "name": "RoleGranted",
      "type": "event"
    },
    {
      "anonymous": false,
      "inputs": [
        {
          "indexed": true,
          "internalType": "bytes32",
          "name": "role",
          "type": "bytes32"
        },
        {
          "indexed": true,
          "internalType": "address",
          "name": "account",
          "type": "address"
        },
        {
          "indexed": true,
          "internalType": "address",
          "name": "sender",
          "type": "address"
        }
      ],
      "name": "RoleRevoked",
      "type": "event"
    },
    {
      "anonymous": false,
      "inputs": [
        {
          "indexed": true,
          "internalType": "address",
          "name": "from",
          "type": "address"
        },
        {
          "indexed": true,
          "internalType": "address",
          "name": "to",
          "type": "address"
        },
        {
          "indexed": false,
          "internalType": "uint256",
          "name": "value",
          "type": "uint256"
        }
      ],
      "name": "Transfer",
      "type": "event"
    },
    {
      "anonymous": false,
      "inputs": [
        {
          "indexed": false,
          "internalType": "address",
          "name": "account",
          "type": "address"
        }
      ],
      "name": "Unpaused",
      "type": "event"
    },
    {
      "inputs": [],
      "name": "DEFAULT_ADMIN_ROLE",
      "outputs": [
        {
          "internalType": "bytes32",
          "name": "",
          "type": "bytes32"
        }
      ],
      "stateMutability": "view",
      "type": "function"
    },
    {
      "inputs": [],
      "name": "MINTER_ROLE",
      "outputs": [
        {
          "internalType": "bytes32",
          "name": "",
          "type": "bytes32"
        }
      ],
      "stateMutability": "view",
      "type": "function"
    },
    {
      "inputs": [],
      "name": "PAUSER_ROLE",
      "outputs": [
        {
          "internalType": "bytes32",
          "name": "",
          "type": "bytes32"
        }
      ],
      "stateMutability": "view",
      "type": "function"
    },
    {
      "inputs": [
        {
          "internalType": "address",
          "name": "owner",
          "type": "address"
        },
        {
          "internalType": "address",
          "name": "spender",
          "type": "address"
        }
      ],
      "name": "allowance",
      "outputs": [
        {
          "internalType": "uint256",
          "name": "",
          "type": "uint256"
        }
      ],
      "stateMutability": "view",
      "type": "function"
    },
    {
      "inputs": [
        {
          "internalType": "address",
          "name": "spender",
          "type": "address"
        },
        {
          "internalType": "uint256",
          "name": "value",
          "type": "uint256"
        }
      ],
      "name": "approve",
      "outputs": [
        {
          "internalType": "bool",
          "name": "",
          "type": "bool"
        }
      ],
      "stateMutability": "nonpayable",
      "type": "function"
    },
    {
      "inputs": [
        {
          "internalType": "address",
          "name": "account",
          "type": "address"
        }
      ],
      "name": "balanceOf",
      "outputs": [
        {
          "internalType": "uint256",
          "name": "",
          "type": "uint256"
        }
      ],
      "stateMutability": "view",
      "type": "function"
    },
    {
      "inputs": [
        {
          "internalType": "uint256",
          "name": "value",
          "type": "uint256"
        }
      ],
      "name": "burn",
      "outputs": [],
      "stateMutability": "nonpayable",
      "type": "function"
    },
    {
      "inputs": [
        {
          "internalType": "address",
          "name": "account",
          "type": "address"
        },
        {
          "internalType": "uint256",
          "name": "value",
          "type": "uint256"
        }
      ],
      "name": "burnFrom",
      "outputs": [],
      "stateMutability": "nonpayable",
      "type": "function"
    },
    {
      "inputs": [],
      "name": "cashbackPercentage",
      "outputs": [
        {
          "internalType": "uint256",
          "name": "",
          "type": "uint256"
        }
      ],
      "stateMutability": "view",
      "type": "function"
    },
    {
      "inputs": [
        {
          "internalType": "address",
          "name": "",
          "type": "address"
        }
      ],
      "name": "dailySpendingLimit",
      "outputs": [
        {
          "internalType": "uint256",
          "name": "",
          "type": "uint256"
        }
      ],
      "stateMutability": "view",
      "type": "function"
    },
    {
      "inputs": [],
      "name": "decimals",
      "outputs": [
        {
          "internalType": "uint8",
          "name": "",
          "type": "uint8"
        }
      ],
      "stateMutability": "view",
      "type": "function"
    },
    {
      "inputs": [
        {
          "internalType": "bytes32",
          "name": "role",
          "type": "bytes32"
        }
      ],
      "name": "getRoleAdmin",
      "outputs": [
        {
          "internalType": "bytes32",
          "name": "",
          "type": "bytes32"
        }
      ],
      "stateMutability": "view",
      "type": "function"
    },
    {
      "inputs": [
        {
          "internalType": "bytes32",
          "name": "role",
          "type": "bytes32"
        },
        {
          "internalType": "address",
          "name": "account",
          "type": "address"
        }
      ],
      "name": "grantRole",
      "outputs": [],
      "stateMutability": "nonpayable",
      "type": "function"
    },
    {
      "inputs": [
        {
          "internalType": "bytes32",
          "name": "role",
          "type": "bytes32"
        },
        {
          "internalType": "address",
          "name": "account",
          "type": "address"
        }
      ],
      "name": "hasRole",
      "outputs": [
        {
          "internalType": "bool",
          "name": "",
          "type": "bool"
        }
      ],
      "stateMutability": "view",
      "type": "function"
    },
    {
      "inputs": [
        {
          "internalType": "address",
          "name": "",
          "type": "address"
        }
      ],
      "name": "isMerchant",
      "outputs": [
        {
          "internalType": "bool",
          "name": "",
          "type": "bool"
        }
      ],
      "stateMutability": "view",
      "type": "function"
    },
    {
      "inputs": [
        {
          "internalType": "address",
          "name": "",
          "type": "address"
        }
      ],
      "name": "lastSpendingReset",
      "outputs": [
        {
          "internalType": "uint256",
          "name": "",
          "type": "uint256"
        }
      ],
      "stateMutability": "view",
      "type": "function"
    },
    {
      "inputs": [
        {
          "internalType": "address",
          "name": "",
          "type": "address"
        }
      ],
      "name": "merchantName",
      "outputs": [
        {
          "internalType": "string",
          "name": "",
          "type": "string"
        }
      ],
      "stateMutability": "view",
      "type": "function"
    },
    {
      "inputs": [
        {
          "internalType": "address",
          "name": "to",
          "type": "address"
        },
        {
          "internalType": "uint256",
          "name": "amount",
          "type": "uint256"
        }
      ],
      "name": "mint",
      "outputs": [],
      "stateMutability": "nonpayable",
      "type": "function"
    },
    {
      "inputs": [],
      "name": "name",
      "outputs": [
        {
          "internalType": "string",
          "name": "",
          "type": "string"
        }
      ],
      "stateMutability": "view",
      "type": "function"
    },
    {
      "inputs": [],
      "name": "pause",
      "outputs": [],
      "stateMutability": "nonpayable",
      "type": "function"
    },
    {
      "inputs": [],
      "name": "paused",
      "outputs": [
        {
          "internalType": "bool",
          "name": "",
          "type": "bool"
        }
      ],
      "stateMutability": "view",
      "type": "function"
    },
    {
      "inputs": [
        {
          "internalType": "address",
          "name": "merchant",
          "type": "address"
        },
        {
          "internalType": "string",
          "name": "name",
          "type": "string"
        }
      ],
      "name": "registerMerchant",
      "outputs": [],
      "stateMutability": "nonpayable",
      "type": "function"
    },
    {
      "inputs": [
        {
          "internalType": "bytes32",
          "name": "role",
          "type": "bytes32"
        },
        {
          "internalType": "address",
          "name": "callerConfirmation",
          "type": "address"
        }
      ],
      "name": "renounceRole",
      "outputs": [],
      "stateMutability": "nonpayable",
      "type": "function"
    },
    {
      "inputs": [
        {
          "internalType": "bytes32",
          "name": "role",
          "type": "bytes32"
        },
        {
          "internalType": "address",
          "name": "account",
          "type": "address"
        }
      ],
      "name": "revokeRole",
      "outputs": [],
      "stateMutability": "nonpayable",
      "type": "function"
    },
    {
      "inputs": [
        {
          "internalType": "address",
          "name": "student",
          "type": "address"
        },
        {
          "internalType": "uint256",
          "name": "limit",
          "type": "uint256"
        }
      ],
      "name": "setDailyLimit",
      "outputs": [],
      "stateMutability": "nonpayable",
      "type": "function"
    },
    {
      "inputs": [
        {
          "internalType": "address",
          "name": "",
          "type": "address"
        }
      ],
      "name": "spentToday",
      "outputs": [
        {
          "internalType": "uint256",
          "name": "",
          "type": "uint256"
        }
      ],
      "stateMutability": "view",
      "type": "function"
    },
    {
      "inputs": [
        {
          "internalType": "bytes4",
          "name": "interfaceId",
          "type": "bytes4"
        }
      ],
      "name": "supportsInterface",
      "outputs": [
        {
          "internalType": "bool",
          "name": "",
          "type": "bool"
        }
      ],
      "stateMutability": "view",
      "type": "function"
    },
    {
      "inputs": [],
      "name": "symbol",
      "outputs": [
        {
          "internalType": "string",
          "name": "",
          "type": "string"
        }
      ],
      "stateMutability": "view",
      "type": "function"
    },
    {
      "inputs": [],
      "name": "totalSupply",
      "outputs": [
        {
          "internalType": "uint256",
          "name": "",
          "type": "uint256"
        }
      ],
      "stateMutability": "view",
      "type": "function"
    },
    {
      "inputs": [
        {
          "internalType": "address",
          "name": "to",
          "type": "address"
        },
        {
          "internalType": "uint256",
          "name": "value",
          "type": "uint256"
        }
      ],
      "name": "transfer",
      "outputs": [
        {
          "internalType": "bool",
          "name": "",
          "type": "bool"
        }
      ],
      "stateMutability": "nonpayable",
      "type": "function"
    },
    {
      "inputs": [
        {
          "internalType": "address",
          "name": "from",
          "type": "address"
        },
        {
          "internalType": "address",
          "name": "to",
          "type": "address"
        },
        {
          "internalType": "uint256",
          "name": "value",
          "type": "uint256"
        }
      ],
      "name": "transferFrom",
      "outputs": [
        {
          "internalType": "bool",
          "name": "",
          "type": "bool"
        }
      ],
      "stateMutability": "nonpayable",
      "type": "function"
    },
    {
      "inputs": [],
      "name": "unpause",
      "outputs": [],
      "stateMutability": "nonpayable",
      "type": "function"
    }
  ],
  "bytecode": "0x60806040526002600c5534801561001557600080fd5b506040518060400160405280600d81526020016c10d85b5c1d5cc810dc99591a5d609a1b8152506040518060400160405280600681526020016510d49151125560d21b815250816003908161006a91906103fa565b50600461007782826103fa565b5061008791506000905033610105565b506100b27f65d7a28e3265b37a6474929f336521b332c1681b933f6cb9f3376673440d862a33610105565b506100dd7f9f2df0fed2c77648de5860a4cc508cd0818c85b8b8a1ab4ceeef8d981c8956a633610105565b50610100336100ee6012600a6105b5565b6100fb90629896806105cb565b6101b5565b6105f5565b60008281526006602090815260408083206001600160a01b038516845290915281205460ff166101ab5760008381526006602090815260408083206001600160a01b03861684529091529020805460ff191660011790556101633390565b6001600160a01b0316826001600160a01b0316847f2f8788117e7eff1d82e926ec794901d17c78024a50270940304540a733656f0d60405160405180910390a45060016101af565b5060005b92915050565b6001600160a01b0382166101e45760405163ec442f0560e01b8152600060048201526024015b60405180910390fd5b6101f0600083836101f4565b5050565b6101fc61020c565b610207838383610232565b505050565b60055460ff16156102305760405163d93c066560e01b815260040160405180910390fd5b565b6001600160a01b03831661025d57806002600082825461025291906105e2565b909155506102cf9050565b6001600160a01b038316600090815260208190526040902054818110156102b05760405163391434e360e21b81526001600160a01b038516600482015260248101829052604481018390526064016101db565b6001600160a01b03841660009081526020819052604090209082900390555b6001600160a01b0382166102eb5760028054829003905561030a565b6001600160a01b03821660009081526020819052604090208054820190555b816001600160a01b0316836001600160a01b03167fddf252ad1be2c89b69c2b068fc378daa952ba7f163c4a11628f55a4df523b3ef8360405161034f91815260200190565b60405180910390a3505050565b634e487b7160e01b600052604160045260246000fd5b600181811c9082168061038657607f821691505b6020821081036103a657634e487b7160e01b600052602260045260246000fd5b50919050565b601f82111561020757806000526020600020601f840160051c810160208510156103d35750805b601f840160051c820191505b818110156103f357600081556001016103df565b5050505050565b81516001600160401b038111156104135761041361035c565b610427816104218454610372565b846103ac565b6020601f82116001811461045b57600083156104435750848201515b600019600385901b1c1916600184901b1784556103f3565b600084815260208120601f198516915b8281101561048b578785015182556020948501946001909201910161046b565b50848210156104a95786840151600019600387901b60f8161c191681555b50505050600190811b01905550565b634e487b7160e01b600052601160045260246000fd5b6001815b6001841115610509578085048111156104ed576104ed6104b8565b60018416156104fb57908102905b60019390931c9280026104d2565b935093915050565b600082610520575060016101af565b8161052d575060006101af565b8160018114610543576002811461054d57610569565b60019150506101af565b60ff84111561055e5761055e6104b8565b50506001821b6101af565b5060208310610133831016604e8410600b841016171561058c575081810a6101af565b61059960001984846104ce565b80600019048211156105ad576105ad6104b8565b029392505050565b60006105c460ff841683610511565b9392505050565b80820281158282048414176101af576101af6104b8565b808201808211156101af576101af6104b8565b611498806106046000396000f3fe608060405234801561001057600080fd5b50600436106101f05760003560e01c806342966c681161010f57806395d89b41116100a2578063d539139311610071578063d53913931461043c578063d547741f14610463578063dd62ed3e14610476578063e63ab1e9146104af57600080fd5b806395d89b4114610406578063a217fddf1461040e578063a6c8a38414610416578063a9059cbb1461042957600080fd5b806379cc6790116100de57806379cc6790146103b85780638456cb59146103cb5780638aeac501146103d357806391d14854146103f357600080fd5b806342966c681461035e5780635c975abb1461037157806360caa6091461037c57806370a082311461038f57600080fd5b8063251de80111610187578063313ce56711610156578063313ce5671461032157806336568abe146103305780633f4ba83a1461034357806340c10f191461034b57600080fd5b8063251de801146102b9578063257caf9e146102d95780632803212f146102f95780632f2ff15d1461030e57600080fd5b80631a2f7167116101c35780631a2f7167146102575780631c9cef041461027a57806323b872dd14610283578063248a9ca31461029657600080fd5b806301ffc9a7146101f557806306fdde031461021d578063095ea7b31461023257806318160ddd14610245575b600080fd5b610208610203366004610f6b565b6104d6565b60405190151581526020015b60405180910390f35b61022561050d565b6040516102149190610fe2565b610208610240366004611011565b61059f565b6002545b604051908152602001610214565b61020861026536600461103b565b600a6020526000908152604090205460ff1681565b610249600c5481565b610208610291366004611056565b6105b7565b6102496102a4366004611093565b60009081526006602052604090206001015490565b6102496102c736600461103b565b60096020526000908152604090205481565b6102496102e736600461103b565b60076020526000908152604090205481565b61030c610307366004611011565b6105db565b005b61030c61031c3660046110ac565b610640565b60405160128152602001610214565b61030c61033e3660046110ac565b61066b565b61030c6106a3565b61030c610359366004611011565b6106d8565b61030c61036c366004611093565b61077e565b60055460ff16610208565b61022561038a36600461103b565b610788565b61024961039d36600461103b565b6001600160a01b031660009081526020819052604090205490565b61030c6103c6366004611011565b610822565b61030c61083b565b6102496103e136600461103b565b60086020526000908152604090205481565b6102086104013660046110ac565b61086d565b610225610898565b610249600081565b61030c6104243660046110ee565b6108a7565b610208610437366004611011565b6109b9565b6102497f9f2df0fed2c77648de5860a4cc508cd0818c85b8b8a1ab4ceeef8d981c8956a681565b61030c6104713660046110ac565b6109c7565b6102496104843660046111b8565b6001600160a01b03918216600090815260016020908152604080832093909416825291909152205490565b6102497f65d7a28e3265b37a6474929f336521b332c1681b933f6cb9f3376673440d862a81565b60006001600160e01b03198216637965db0b60e01b148061050757506301ffc9a760e01b6001600160e01b03198316145b92915050565b60606003805461051c906111e2565b80601f0160208091040260200160405190810160405280929190818152602001828054610548906111e2565b80156105955780601f1061056a57610100808354040283529160200191610595565b820191906000526020600020905b81548152906001019060200180831161057857829003601f168201915b5050505050905090565b6000336105ad8185856109ec565b5060019392505050565b6000336105c58582856109f9565b6105d0858585610a72565b506001949350505050565b60006105e681610ad1565b6001600160a01b038316600081815260076020908152604091829020859055815192835282018490527fd3d22ffd28b02735cf411bd7f925bd8da01212c7028153e0d632e2953ac3088e91015b60405180910390a1505050565b60008281526006602052604090206001015461065b81610ad1565b6106658383610adb565b50505050565b6001600160a01b03811633146106945760405163334bd91960e11b815260040160405180910390fd5b61069e8282610b6f565b505050565b7f65d7a28e3265b37a6474929f336521b332c1681b933f6cb9f3376673440d862a6106cd81610ad1565b6106d5610bdc565b50565b7f9f2df0fed2c77648de5860a4cc508cd0818c85b8b8a1ab4ceeef8d981c8956a661070281610ad1565b60006107106012600a611319565b61071d90620f4240611328565b9050808311156107745760405162461bcd60e51b815260206004820152601760248201527f457863656564206461696c79206d696e74206c696d697400000000000000000060448201526064015b60405180910390fd5b6106658484610c2e565b6106d53382610c64565b600b60205260009081526040902080546107a1906111e2565b80601f01602080910402602001604051908101604052809291908181526020018280546107cd906111e2565b801561081a5780601f106107ef5761010080835404028352916020019161081a565b820191906000526020600020905b8154815290600101906020018083116107fd57829003601f168201915b505050505081565b61082d8233836109f9565b6108378282610c64565b5050565b7f65d7a28e3265b37a6474929f336521b332c1681b933f6cb9f3376673440d862a61086581610ad1565b6106d5610c9a565b60009182526006602090815260408084206001600160a01b0393909316845291905290205460ff1690565b60606004805461051c906111e2565b60006108b281610ad1565b6001600160a01b0383166000908152600a602052604090205460ff16156109105760405162461bcd60e51b81526020600482015260126024820152711053149150511657d49151d254d51154915160721b604482015260640161076b565b81516000036109505760405162461bcd60e51b815260206004820152600c60248201526b494e56414c49445f4e414d4560a01b604482015260640161076b565b6001600160a01b0383166000908152600a60209081526040808320805460ff19166001179055600b9091529020610987838261138d565b507fec31b5c87ea82f60c8bc1dd8262f275183d0d7bc8c37cdbbfd74130441818fbc838360405161063392919061144c565b6000336105ad818585610a72565b6000828152600660205260409020600101546109e281610ad1565b6106658383610b6f565b61069e8383836001610cd7565b6001600160a01b038381166000908152600160209081526040808320938616835292905220546000198110156106655781811015610a6357604051637dc7a0d960e11b81526001600160a01b0384166004820152602481018290526044810183905260640161076b565b61066584848484036000610cd7565b6001600160a01b038316610a9c57604051634b637e8f60e11b81526000600482015260240161076b565b6001600160a01b038216610ac65760405163ec442f0560e01b81526000600482015260240161076b565b61069e838383610dac565b6106d58133610dbf565b6000610ae7838361086d565b610b675760008381526006602090815260408083206001600160a01b03861684529091529020805460ff19166001179055610b1f3390565b6001600160a01b0316826001600160a01b0316847f2f8788117e7eff1d82e926ec794901d17c78024a50270940304540a733656f0d60405160405180910390a4506001610507565b506000610507565b6000610b7b838361086d565b15610b675760008381526006602090815260408083206001600160a01b0386168085529252808320805460ff1916905551339286917ff6391f5c32d9c69d2a47ea670b442974b53935d1edc7fd64eb21e047a839171b9190a4506001610507565b610be4610df8565b6005805460ff191690557f5db9ee0a495bf2e6ff9c91a7834c1ba4fdd244a5e8aa4e537bd38aeae4b073aa335b6040516001600160a01b03909116815260200160405180910390a1565b6001600160a01b038216610c585760405163ec442f0560e01b81526000600482015260240161076b565b61083760008383610dac565b6001600160a01b038216610c8e57604051634b637e8f60e11b81526000600482015260240161076b565b61083782600083610dac565b610ca2610e1d565b6005805460ff191660011790557f62e78cea01bee320cd4e420270b5ea74000d11b0c9f74754ebdbfc544b05a258610c113390565b6001600160a01b038416610d015760405163e602df0560e01b81526000600482015260240161076b565b6001600160a01b038316610d2b57604051634a1406b160e11b81526000600482015260240161076b565b6001600160a01b038085166000908152600160209081526040808320938716835292905220829055801561066557826001600160a01b0316846001600160a01b03167f8c5be1e5ebec7d5bd14f71427d1e84f3dd0314c0f7b2291e5b200ac8c7c3b92584604051610d9e91815260200190565b60405180910390a350505050565b610db4610e1d565b61069e838383610e41565b610dc9828261086d565b6108375760405163e2517d3f60e01b81526001600160a01b03821660048201526024810183905260440161076b565b60055460ff16610e1b57604051638dfc202b60e01b815260040160405180910390fd5b565b60055460ff1615610e1b5760405163d93c066560e01b815260040160405180910390fd5b6001600160a01b038316610e6c578060026000828254610e619190611478565b90915550610ede9050565b6001600160a01b03831660009081526020819052604090205481811015610ebf5760405163391434e360e21b81526001600160a01b0385166004820152602481018290526044810183905260640161076b565b6001600160a01b03841660009081526020819052604090209082900390555b6001600160a01b038216610efa57600280548290039055610f19565b6001600160a01b03821660009081526020819052604090208054820190555b816001600160a01b0316836001600160a01b03167fddf252ad1be2c89b69c2b068fc378daa952ba7f163c4a11628f55a4df523b3ef83604051610f5e91815260200190565b60405180910390a3505050565b600060208284031215610f7d57600080fd5b81356001600160e01b031981168114610f9557600080fd5b9392505050565b6000815180845260005b81811015610fc257602081850181015186830182015201610fa6565b506000602082860101526020601f19601f83011685010191505092915050565b602081526000610f956020830184610f9c565b80356001600160a01b038116811461100c57600080fd5b919050565b6000806040838503121561102457600080fd5b61102d83610ff5565b946020939093013593505050565b60006020828403121561104d57600080fd5b610f9582610ff5565b60008060006060848603121561106b57600080fd5b61107484610ff5565b925061108260208501610ff5565b929592945050506040919091013590565b6000602082840312156110a557600080fd5b5035919050565b600080604083850312156110bf57600080fd5b823591506110cf60208401610ff5565b90509250929050565b634e487b7160e01b600052604160045260246000fd5b6000806040838503121561110157600080fd5b61110a83610ff5565b9150602083013567ffffffffffffffff81111561112657600080fd5b8301601f8101851361113757600080fd5b803567ffffffffffffffff811115611151576111516110d8565b604051601f8201601f19908116603f0116810167ffffffffffffffff81118282101715611180576111806110d8565b60405281815282820160200187101561119857600080fd5b816020840160208301376000602083830101528093505050509250929050565b600080604083850312156111cb57600080fd5b6111d483610ff5565b91506110cf60208401610ff5565b600181811c908216806111f657607f821691505b60208210810361121657634e487b7160e01b600052602260045260246000fd5b50919050565b634e487b7160e01b600052601160045260246000fd5b6001815b600184111561126d578085048111156112515761125161121c565b600184161561125f57908102905b60019390931c928002611236565b935093915050565b60008261128457506001610507565b8161129157506000610507565b81600181146112a757600281146112b1576112cd565b6001915050610507565b60ff8411156112c2576112c261121c565b50506001821b610507565b5060208310610133831016604e8410600b84101617156112f0575081810a610507565b6112fd6000198484611232565b80600019048211156113115761131161121c565b029392505050565b6000610f9560ff841683611275565b80820281158282048414176105075761050761121c565b601f82111561069e57806000526020600020601f840160051c810160208510156113665750805b601f840160051c820191505b818110156113865760008155600101611372565b5050505050565b815167ffffffffffffffff8111156113a7576113a76110d8565b6113bb816113b584546111e2565b8461133f565b6020601f8211600181146113ef57600083156113d75750848201515b600019600385901b1c1916600184901b178455611386565b600084815260208120601f198516915b8281101561141f57878501518255602094850194600190920191016113ff565b508482101561143d5786840151600019600387901b60f8161c191681555b50505050600190811b01905550565b6001600160a01b038316815260406020820181905260009061147090830184610f9c565b949350505050565b808201808211156105075761050761121c56fea164736f6c634300081c000a",
  "linkReferences": {},
  "deployedLinkReferences": {}
}