{
  "_format": "hh-sol-artifact-1",
  "contractName": "CampusCredit",
  "sourceName": "contracts/CampusCredit.sol",
  "abi": [
    {
      "inputs": [],
      "stateMutability": "nonpayable",
      "type": "constructor"
    },
    {
      "anonymous": false,
      "inputs": [
        {
          "indexed": true,
          "internalType": "address",
          "name": "owner",
          "type": "address"
        },
        {
          "indexed": true,
          "internalType": "address",
          "name": "spender",
          "type": "address"
        },
        {
          "indexed": false,
          "internalType": "uint256",
          "name": "value",
          "type": "uint256"
        }
      ],
      "name": "Approval",
      "type": "event"
    },
    {
      "anonymous": false,
      "inputs": [
        {
          "indexed": true,
          "internalType": "address",
          "name": "student",
          "type": "address"
        },
        {
          "indexed": false,
          "internalType": "uint256",
          "name": "amount",
          "type": "uint256"
        }
      ],
      "name": "CashbackIssued",
      "type": "event"
    },
    {
      "anonymous": false,
      "inputs": [
        {
          "indexed": true,
          "internalType": "address",
          "name": "student",
          "type": "address"
        },
        {
          "indexed": false,
          "internalType": "uint256",
          "name": "limit",
          "type": "uint256"
        }
      ],
      "name": "DailyLimitSet",
      "type": "event"
    },
    {
      "anonymous": false,
      "inputs": [
        {
          "indexed": true,
          "internalType": "address",
          "name": "merchant",
          "type": "address"
        },
        {
          "indexed": false,
          "internalType": "string",
          "name": "name",
          "type": "string"
        }
      ],
      "name": "MerchantRegistered",
      "type": "event"
    },
    {
      "anonymous": false,
      "inputs": [
        {
          "indexed": false,
          "internalType": "address",
          "name": "account",
          "type": "address"
        }
      ],
      "name": "Paused",
      "type": "event"
    },
    {
      "anonymous": false,
      "inputs": [
        {
          "indexed": true,
          "internalType": "bytes32",
          "name": "role",
          "type": "bytes32"
        },
        {
          "indexed": true,
          "internalType": "bytes32",
          "name": "previousAdminRole",
          "type": "bytes32"
        },
        {
          "indexed": true,
          "internalType": "bytes32",
          "name": "newAdminRole",
          "type": "bytes32"
        }
      ],
      "name": "RoleAdminChanged",
      "type": "event"
    },
    {
      "anonymous": false,
      "inputs": [
        {
          "indexed": true,
          "internalType": "bytes32",
          "name": "role",
          "type": "bytes32"
        },
        {
          "indexed": true,
          "internalType": "address",
          "name": "account",
          "type": "address"
        },
        {
          "indexed": true,
          "internalType": "address",
          "name": "sender",
          "type": "address"
        }
      ],
      "name": "RoleGranted",
      "type": "event"
    },
    {
      "anonymous": false,
      "inputs": [
        {
          "indexed": true,
          "internalType": "bytes32",
          "name": "role",
          "type": "bytes32"
        },
        {
          "indexed": true,
          "internalType": "address",
          "name": "account",
          "type": "address"
        },
        {
          "indexed": true,
          "internalType": "address",
          "name": "sender",
          "type": "address"
        }
      ],
      "name": "RoleRevoked",
      "type": "event"
    },
    {
      "anonymous": false,
      "inputs": [
        {
          "indexed": true,
          "internalType": "address",
          "name": "student",
          "type": "address"
        },
        {
          "indexed": false,
          "internalType": "uint256",
          "name": "amount",
          "type": "uint256"
        },
        {
          "indexed": false,
          "internalType": "uint256",
          "name": "cashback",
          "type": "uint256"
        }
      ],
      "name": "Spent",
      "type": "event"
    },
    {
      "anonymous": false,
      "inputs": [
        {
          "indexed": true,
          "internalType": "address",
          "name": "from",
          "type": "address"
        },
        {
          "indexed": true,
          "internalType": "address",
          "name": "to",
          "type": "address"
        },
        {
          "indexed": false,
          "internalType": "uint256",
          "name": "value",
          "type": "uint256"
        }
      ],
      "name": "Transfer",
      "type": "event"
    },
    {
      "anonymous": false,
      "inputs": [
        {
          "indexed": false,
          "internalType": "address",
          "name": "account",
          "type": "address"
        }
      ],
      "name": "Unpaused",
      "type": "event"
    },
    {
      "inputs": [],
      "name": "DEFAULT_ADMIN_ROLE",
      "outputs": [
        {
          "internalType": "bytes32",
          "name": "",
          "type": "bytes32"
        }
      ],
      "stateMutability": "view",
      "type": "function"
    },
    {
      "inputs": [],
      "name": "MINTER_ROLE",
      "outputs": [
        {
          "internalType": "bytes32",
          "name": "",
          "type": "bytes32"
        }
      ],
      "stateMutability": "view",
      "type": "function"
    },
    {
      "inputs": [],
      "name": "PAUSER_ROLE",
      "outputs": [
        {
          "internalType": "bytes32",
          "name": "",
          "type": "bytes32"
        }
      ],
      "stateMutability": "view",
      "type": "function"
    },
    {
      "inputs": [
        {
          "internalType": "address",
          "name": "owner",
          "type": "address"
        },
        {
          "internalType": "address",
          "name": "spender",
          "type": "address"
        }
      ],
      "name": "allowance",
      "outputs": [
        {
          "internalType": "uint256",
          "name": "",
          "type": "uint256"
        }
      ],
      "stateMutability": "view",
      "type": "function"
    },
    {
      "inputs": [
        {
          "internalType": "address",
          "name": "spender",
          "type": "address"
        },
        {
          "internalType": "uint256",
          "name": "amount",
          "type": "uint256"
        }
      ],
      "name": "approve",
      "outputs": [
        {
          "internalType": "bool",
          "name": "",
          "type": "bool"
        }
      ],
      "stateMutability": "nonpayable",
      "type": "function"
    },
    {
      "inputs": [
        {
          "internalType": "address",
          "name": "account",
          "type": "address"
        }
      ],
      "name": "balanceOf",
      "outputs": [
        {
          "internalType": "uint256",
          "name": "",
          "type": "uint256"
        }
      ],
      "stateMutability": "view",
      "type": "function"
    },
    {
      "inputs": [
        {
          "internalType": "uint256",
          "name": "amount",
          "type": "uint256"
        }
      ],
      "name": "burn",
      "outputs": [],
      "stateMutability": "nonpayable",
      "type": "function"
    },
    {
      "inputs": [
        {
          "internalType": "address",
          "name": "account",
          "type": "address"
        },
        {
          "internalType": "uint256",
          "name": "amount",
          "type": "uint256"
        }
      ],
      "name": "burnFrom",
      "outputs": [],
      "stateMutability": "nonpayable",
      "type": "function"
    },
    {
      "inputs": [],
      "name": "cashbackPercentage",
      "outputs": [
        {
          "internalType": "uint256",
          "name": "",
          "type": "uint256"
        }
      ],
      "stateMutability": "view",
      "type": "function"
    },
    {
      "inputs": [
        {
          "internalType": "address",
          "name": "",
          "type": "address"
        }
      ],
      "name": "dailySpendingLimit",
      "outputs": [
        {
          "internalType": "uint256",
          "name": "",
          "type": "uint256"
        }
      ],
      "stateMutability": "view",
      "type": "function"
    },
    {
      "inputs": [],
      "name": "decimals",
      "outputs": [
        {
          "internalType": "uint8",
          "name": "",
          "type": "uint8"
        }
      ],
      "stateMutability": "view",
      "type": "function"
    },
    {
      "inputs": [
        {
          "internalType": "address",
          "name": "spender",
          "type": "address"
        },
        {
          "internalType": "uint256",
          "name": "subtractedValue",
          "type": "uint256"
        }
      ],
      "name": "decreaseAllowance",
      "outputs": [
        {
          "internalType": "bool",
          "name": "",
          "type": "bool"
        }
      ],
      "stateMutability": "nonpayable",
      "type": "function"
    },
    {
      "inputs": [
        {
          "internalType": "bytes32",
          "name": "role",
          "type": "bytes32"
        }
      ],
      "name": "getRoleAdmin",
      "outputs": [
        {
          "internalType": "bytes32",
          "name": "",
          "type": "bytes32"
        }
      ],
      "stateMutability": "view",
      "type": "function"
    },
    {
      "inputs": [
        {
          "internalType": "bytes32",
          "name": "role",
          "type": "bytes32"
        },
        {
          "internalType": "address",
          "name": "account",
          "type": "address"
        }
      ],
      "name": "grantRole",
      "outputs": [],
      "stateMutability": "nonpayable",
      "type": "function"
    },
    {
      "inputs": [
        {
          "internalType": "bytes32",
          "name": "role",
          "type": "bytes32"
        },
        {
          "internalType": "address",
          "name": "account",
          "type": "address"
        }
      ],
      "name": "hasRole",
      "outputs": [
        {
          "internalType": "bool",
          "name": "",
          "type": "bool"
        }
      ],
      "stateMutability": "view",
      "type": "function"
    },
    {
      "inputs": [
        {
          "internalType": "address",
          "name": "spender",
          "type": "address"
        },
        {
          "internalType": "uint256",
          "name": "addedValue",
          "type": "uint256"
        }
      ],
      "name": "increaseAllowance",
      "outputs": [
        {
          "internalType": "bool",
          "name": "",
          "type": "bool"
        }
      ],
      "stateMutability": "nonpayable",
      "type": "function"
    },
    {
      "inputs": [
        {
          "internalType": "address",
          "name": "",
          "type": "address"
        }
      ],
      "name": "isMerchant",
      "outputs": [
        {
          "internalType": "bool",
          "name": "",
          "type": "bool"
        }
      ],
      "stateMutability": "view",
      "type": "function"
    },
    {
      "inputs": [
        {
          "internalType": "address",
          "name": "",
          "type": "address"
        }
      ],
      "name": "lastSpendingReset",
      "outputs": [
        {
          "internalType": "uint256",
          "name": "",
          "type": "uint256"
        }
      ],
      "stateMutability": "view",
      "type": "function"
    },
    {
      "inputs": [
        {
          "internalType": "address",
          "name": "",
          "type": "address"
        }
      ],
      "name": "merchantName",
      "outputs": [
        {
          "internalType": "string",
          "name": "",
          "type": "string"
        }
      ],
      "stateMutability": "view",
      "type": "function"
    },
    {
      "inputs": [
        {
          "internalType": "address",
          "name": "to",
          "type": "address"
        },
        {
          "internalType": "uint256",
          "name": "amount",
          "type": "uint256"
        }
      ],
      "name": "mint",
      "outputs": [],
      "stateMutability": "nonpayable",
      "type": "function"
    },
    {
      "inputs": [],
      "name": "name",
      "outputs": [
        {
          "internalType": "string",
          "name": "",
          "type": "string"
        }
      ],
      "stateMutability": "view",
      "type": "function"
    },
    {
      "inputs": [],
      "name": "pause",
      "outputs": [],
      "stateMutability": "nonpayable",
      "type": "function"
    },
    {
      "inputs": [],
      "name": "paused",
      "outputs": [
        {
          "internalType": "bool",
          "name": "",
          "type": "bool"
        }
      ],
      "stateMutability": "view",
      "type": "function"
    },
    {
      "inputs": [
        {
          "internalType": "address",
          "name": "merchant",
          "type": "address"
        },
        {
          "internalType": "string",
          "name": "name",
          "type": "string"
        }
      ],
      "name": "registerMerchant",
      "outputs": [],
      "stateMutability": "nonpayable",
      "type": "function"
    },
    {
      "inputs": [
        {
          "internalType": "bytes32",
          "name": "role",
          "type": "bytes32"
        },
        {
          "internalType": "address",
          "name": "account",
          "type": "address"
        }
      ],
      "name": "renounceRole",
      "outputs": [],
      "stateMutability": "nonpayable",
      "type": "function"
    },
    {
      "inputs": [
        {
          "internalType": "bytes32",
          "name": "role",
          "type": "bytes32"
        },
        {
          "internalType": "address",
          "name": "account",
          "type": "address"
        }
      ],
      "name": "revokeRole",
      "outputs": [],
      "stateMutability": "nonpayable",
      "type": "function"
    },
    {
      "inputs": [
        {
          "internalType": "address",
          "name": "student",
          "type": "address"
        },
        {
          "internalType": "uint256",
          "name": "limit",
          "type": "uint256"
        }
      ],
      "name": "setDailyLimit",
      "outputs": [],
      "stateMutability": "nonpayable",
      "type": "function"
    },
    {
      "inputs": [
        {
          "internalType": "address",
          "name": "student",
          "type": "address"
        },
        {
          "internalType": "uint256",
          "name": "amount",
          "type": "uint256"
        }
      ],
      "name": "spendAtMerchant",
      "outputs": [],
      "stateMutability": "nonpayable",
      "type": "function"
    },
    {
      "inputs": [
        {
          "internalType": "address",
          "name": "",
          "type": "address"
        }
      ],
      "name": "spentToday",
      "outputs": [
        {
          "internalType": "uint256",
          "name": "",
          "type": "uint256"
        }
      ],
      "stateMutability": "view",
      "type": "function"
    },
    {
      "inputs": [
        {
          "internalType": "bytes4",
          "name": "interfaceId",
          "type": "bytes4"
        }
      ],
      "name": "supportsInterface",
      "outputs": [
        {
          "internalType": "bool",
          "name": "",
          "type": "bool"
        }
      ],
      "stateMutability": "view",
      "type": "function"
    },
    {
      "inputs": [],
      "name": "symbol",
      "outputs": [
        {
          "internalType": "string",
          "name": "",
          "type": "string"
        }
      ],
      "stateMutability": "view",
      "type": "function"
    },
    {
      "inputs": [],
      "name": "totalSupply",
      "outputs": [
        {
          "internalType": "uint256",
          "name": "",
          "type": "uint256"
        }
      ],
      "stateMutability": "view",
      "type": "function"
    },
    {
      "inputs": [
        {
          "internalType": "address",
          "name": "to",
          "type": "address"
        },
        {
          "internalType": "uint256",
          "name": "amount",
          "type": "uint256"
        }
      ],
      "name": "transfer",
      "outputs": [
        {
          "internalType": "bool",
          "name": "",
          "type": "bool"
        }
      ],
      "stateMutability": "nonpayable",
      "type": "function"
    },
    {
      "inputs": [
        {
          "internalType": "address",
          "name": "from",
          "type": "address"
        },
        {
          "internalType": "address",
          "name": "to",
          "type": "address"
        },
        {
          "internalType": "uint256",
          "name": "amount",
          "type": "uint256"
        }
      ],
      "name": "transferFrom",
      "outputs": [
        {
          "internalType": "bool",
          "name": "",
          "type": "bool"
        }
      ],
      "stateMutability": "nonpayable",
      "type": "function"
    },
    {
      "inputs": [],
      "name": "unpause",
      "outputs": [],
      "stateMutability": "nonpayable",
      "type": "function"
    }
  ],
  "bytecode": "0x60806040526002600c5534801561001557600080fd5b506040518060400160405280600d81526020016c10d85b5c1d5cc810dc99591a5d609a1b8152506040518060400160405280600681526020016510d49151125560d21b815250816003908161006a91906103a8565b50600461007782826103a8565b50506005805460ff191690555061008f60003361010a565b6100b97f65d7a28e3265b37a6474929f336521b332c1681b933f6cb9f3376673440d862a3361010a565b6100e37f9f2df0fed2c77648de5860a4cc508cd0818c85b8b8a1ab4ceeef8d981c8956a63361010a565b610105336100f36012600a610563565b6101009062989680610579565b610191565b6105a3565b6101148282610261565b61018d5760008281526006602090815260408083206001600160a01b03851684529091529020805460ff1916600117905561014c3390565b6001600160a01b0316816001600160a01b0316837f2f8788117e7eff1d82e926ec794901d17c78024a50270940304540a733656f0d60405160405180910390a45b5050565b6001600160a01b0382166101ec5760405162461bcd60e51b815260206004820152601f60248201527f45524332303a206d696e7420746f20746865207a65726f20616464726573730060448201526064015b60405180910390fd5b6101f86000838361028e565b806002600082825461020a9190610590565b90915550506001600160a01b038216600081815260208181526040808320805486019055518481527fddf252ad1be2c89b69c2b068fc378daa952ba7f163c4a11628f55a4df523b3ef910160405180910390a35050565b60008281526006602090815260408083206001600160a01b038516845290915290205460ff165b92915050565b60055460ff16156102f35760405162461bcd60e51b815260206004820152602960248201527f43616d7075734372656469743a20746f6b656e207472616e73666572207768696044820152681b19481c185d5cd95960ba1b60648201526084016101e3565b6103058383836001600160e01b038416565b505050565b634e487b7160e01b600052604160045260246000fd5b600181811c9082168061033457607f821691505b60208210810361035457634e487b7160e01b600052602260045260246000fd5b50919050565b601f82111561030557806000526020600020601f840160051c810160208510156103815750805b601f840160051c820191505b818110156103a1576000815560010161038d565b5050505050565b81516001600160401b038111156103c1576103c161030a565b6103d5816103cf8454610320565b8461035a565b6020601f82116001811461040957600083156103f15750848201515b600019600385901b1c1916600184901b1784556103a1565b600084815260208120601f198516915b828110156104395787850151825560209485019460019092019101610419565b50848210156104575786840151600019600387901b60f8161c191681555b50505050600190811b01905550565b634e487b7160e01b600052601160045260246000fd5b6001815b60018411156104b75780850481111561049b5761049b610466565b60018416156104a957908102905b60019390931c928002610480565b935093915050565b6000826104ce57506001610288565b816104db57506000610288565b81600181146104f157600281146104fb57610517565b6001915050610288565b60ff84111561050c5761050c610466565b50506001821b610288565b5060208310610133831016604e8410600b841016171561053a575081810a610288565b610547600019848461047c565b806000190482111561055b5761055b610466565b029392505050565b600061057260ff8416836104bf565b9392505050565b808202811582820484141761028857610288610466565b8082018082111561028857610288610466565b611d50806105b26000396000f3fe608060405234801561001057600080fd5b50600436106102115760003560e01c806342966c681161012557806395d89b41116100ad578063a9059cbb1161007c578063a9059cbb14610483578063d539139314610496578063d547741f146104bd578063dd62ed3e146104d0578063e63ab1e9146104e357600080fd5b806395d89b411461044d578063a217fddf14610455578063a457c2d71461045d578063a6c8a3841461047057600080fd5b806371c0fb47116100f457806371c0fb47146103ec57806379cc6790146103ff5780638456cb59146104125780638aeac5011461041a57806391d148541461043a57600080fd5b806342966c68146103925780635c975abb146103a557806360caa609146103b057806370a08231146103c357600080fd5b8063251de801116101a8578063313ce56711610177578063313ce5671461034257806336568abe1461035157806339509351146103645780633f4ba83a1461037757806340c10f191461037f57600080fd5b8063251de801146102da578063257caf9e146102fa5780632803212f1461031a5780632f2ff15d1461032f57600080fd5b80631a2f7167116101e45780631a2f7167146102785780631c9cef041461029b57806323b872dd146102a4578063248a9ca3146102b757600080fd5b806301ffc9a71461021657806306fdde031461023e578063095ea7b31461025357806318160ddd14610266575b600080fd5b610229610224366004611794565b61050a565b60405190151581526020015b60405180910390f35b610246610541565b60405161023591906117e2565b610229610261366004611831565b6105d3565b6002545b604051908152602001610235565b61022961028636600461185b565b600a6020526000908152604090205460ff1681565b61026a600c5481565b6102296102b2366004611876565b6105eb565b61026a6102c53660046118b3565b60009081526006602052604090206001015490565b61026a6102e836600461185b565b60096020526000908152604090205481565b61026a61030836600461185b565b60076020526000908152604090205481565b61032d610328366004611831565b61060f565b005b61032d61033d3660046118cc565b610674565b60405160128152602001610235565b61032d61035f3660046118cc565b61069e565b610229610372366004611831565b610721565b61032d610743565b61032d61038d366004611831565b610778565b61032d6103a03660046118b3565b61081f565b60055460ff16610229565b6102466103be36600461185b565b610829565b61026a6103d136600461185b565b6001600160a01b031660009081526020819052604090205490565b61032d6103fa366004611831565b6108c3565b61032d61040d366004611831565b610af0565b61032d610b05565b61026a61042836600461185b565b60086020526000908152604090205481565b6102296104483660046118cc565b610b37565b610246610b62565b61026a600081565b61022961046b366004611831565b610b71565b61032d61047e36600461190e565b610bec565b610229610491366004611831565b610d07565b61026a7f9f2df0fed2c77648de5860a4cc508cd0818c85b8b8a1ab4ceeef8d981c8956a681565b61032d6104cb3660046118cc565b610d15565b61026a6104de3660046119d8565b610d3a565b61026a7f65d7a28e3265b37a6474929f336521b332c1681b933f6cb9f3376673440d862a81565b60006001600160e01b03198216637965db0b60e01b148061053b57506301ffc9a760e01b6001600160e01b03198316145b92915050565b60606003805461055090611a02565b80601f016020809104026020016040519081016040528092919081815260200182805461057c90611a02565b80156105c95780601f1061059e576101008083540402835291602001916105c9565b820191906000526020600020905b8154815290600101906020018083116105ac57829003601f168201915b5050505050905090565b6000336105e1818585610d65565b5060019392505050565b6000336105f9858285610e89565b610604858585610efd565b506001949350505050565b600061061a816110ac565b6001600160a01b03831660008181526007602052604090819020849055517fd3d22ffd28b02735cf411bd7f925bd8da01212c7028153e0d632e2953ac3088e906106679085815260200190565b60405180910390a2505050565b60008281526006602052604090206001015461068f816110ac565b61069983836110b6565b505050565b6001600160a01b03811633146107135760405162461bcd60e51b815260206004820152602f60248201527f416363657373436f6e74726f6c3a2063616e206f6e6c792072656e6f756e636560448201526e103937b632b9903337b91039b2b63360891b60648201526084015b60405180910390fd5b61071d828261113c565b5050565b6000336105e18185856107348383610d3a565b61073e9190611a52565b610d65565b7f65d7a28e3265b37a6474929f336521b332c1681b933f6cb9f3376673440d862a61076d816110ac565b6107756111a3565b50565b7f9f2df0fed2c77648de5860a4cc508cd0818c85b8b8a1ab4ceeef8d981c8956a66107a2816110ac565b60006107b06012600a611b4c565b6107bd90620f4240611b5b565b90508083111561080f5760405162461bcd60e51b815260206004820152601760248201527f457863656564206461696c79206d696e74206c696d6974000000000000000000604482015260640161070a565b61081984846111f5565b50505050565b61077533826112c0565b600b602052600090815260409020805461084290611a02565b80601f016020809104026020016040519081016040528092919081815260200182805461086e90611a02565b80156108bb5780601f10610890576101008083540402835291602001916108bb565b820191906000526020600020905b81548152906001019060200180831161089e57829003601f168201915b505050505081565b336000908152600a602052604090205460ff166109225760405162461bcd60e51b815260206004820152601960248201527f4e6f7420612072656769737465726564206d65726368616e7400000000000000604482015260640161070a565b80610942836001600160a01b031660009081526020819052604090205490565b10156109875760405162461bcd60e51b8152602060048201526014602482015273496e73756666696369656e742062616c616e636560601b604482015260640161070a565b610990826113fe565b6001600160a01b0382166000908152600860205260408120546109b4908390611a52565b6001600160a01b038416600090815260076020526040902054909150811115610a155760405162461bcd60e51b8152602060048201526013602482015272115e18d959591cc819185a5b1e481b1a5b5a5d606a1b604482015260640161070a565b6001600160a01b0383166000908152600860205260409020819055610a3b833384610efd565b60006064600c5484610a4d9190611b5b565b610a579190611b72565b9050610a6384826111f5565b60408051848152602081018390526001600160a01b038616917f535148561d77998b1c55b0df8e3a745c169a3c2d06073ca7cf45743224cef85d910160405180910390a2836001600160a01b03167fec0505a85b0aae637d0ac5757e609b984cb157e9447b9639378c97314e40586e82604051610ae291815260200190565b60405180910390a250505050565b610afb823383610e89565b61071d82826112c0565b7f65d7a28e3265b37a6474929f336521b332c1681b933f6cb9f3376673440d862a610b2f816110ac565b610775611453565b60009182526006602090815260408084206001600160a01b0393909316845291905290205460ff1690565b60606004805461055090611a02565b60003381610b7f8286610d3a565b905083811015610bdf5760405162461bcd60e51b815260206004820152602560248201527f45524332303a2064656372656173656420616c6c6f77616e63652062656c6f77604482015264207a65726f60d81b606482015260840161070a565b6106048286868403610d65565b6000610bf7816110ac565b6001600160a01b0383166000908152600a602052604090205460ff1615610c555760405162461bcd60e51b8152602060048201526012602482015271105b1c9958591e481c9959da5cdd195c995960721b604482015260640161070a565b6000825111610c965760405162461bcd60e51b815260206004820152600d60248201526c13985b59481c995c5d5a5c9959609a1b604482015260640161070a565b6001600160a01b0383166000908152600a60209081526040808320805460ff19166001179055600b9091529020610ccd8382611be2565b50826001600160a01b03167fec31b5c87ea82f60c8bc1dd8262f275183d0d7bc8c37cdbbfd74130441818fbc8360405161066791906117e2565b6000336105e1818585610efd565b600082815260066020526040902060010154610d30816110ac565b610699838361113c565b6001600160a01b03918216600090815260016020908152604080832093909416825291909152205490565b6001600160a01b038316610dc75760405162461bcd60e51b8152602060048201526024808201527f45524332303a20617070726f76652066726f6d20746865207a65726f206164646044820152637265737360e01b606482015260840161070a565b6001600160a01b038216610e285760405162461bcd60e51b815260206004820152602260248201527f45524332303a20617070726f766520746f20746865207a65726f206164647265604482015261737360f01b606482015260840161070a565b6001600160a01b0383811660008181526001602090815260408083209487168084529482529182902085905590518481527f8c5be1e5ebec7d5bd14f71427d1e84f3dd0314c0f7b2291e5b200ac8c7c3b925910160405180910390a3505050565b6000610e958484610d3a565b905060001981146108195781811015610ef05760405162461bcd60e51b815260206004820152601d60248201527f45524332303a20696e73756666696369656e7420616c6c6f77616e6365000000604482015260640161070a565b6108198484848403610d65565b6001600160a01b038316610f615760405162461bcd60e51b815260206004820152602560248201527f45524332303a207472616e736665722066726f6d20746865207a65726f206164604482015264647265737360d81b606482015260840161070a565b6001600160a01b038216610fc35760405162461bcd60e51b815260206004820152602360248201527f45524332303a207472616e7366657220746f20746865207a65726f206164647260448201526265737360e81b606482015260840161070a565b610fce838383611490565b6001600160a01b038316600090815260208190526040902054818110156110465760405162461bcd60e51b815260206004820152602660248201527f45524332303a207472616e7366657220616d6f756e7420657863656564732062604482015265616c616e636560d01b606482015260840161070a565b6001600160a01b03848116600081815260208181526040808320878703905593871680835291849020805487019055925185815290927fddf252ad1be2c89b69c2b068fc378daa952ba7f163c4a11628f55a4df523b3ef910160405180910390a3610819565b61077581336114f5565b6110c08282610b37565b61071d5760008281526006602090815260408083206001600160a01b03851684529091529020805460ff191660011790556110f83390565b6001600160a01b0316816001600160a01b0316837f2f8788117e7eff1d82e926ec794901d17c78024a50270940304540a733656f0d60405160405180910390a45050565b6111468282610b37565b1561071d5760008281526006602090815260408083206001600160a01b0385168085529252808320805460ff1916905551339285917ff6391f5c32d9c69d2a47ea670b442974b53935d1edc7fd64eb21e047a839171b9190a45050565b6111ab61154e565b6005805460ff191690557f5db9ee0a495bf2e6ff9c91a7834c1ba4fdd244a5e8aa4e537bd38aeae4b073aa335b6040516001600160a01b03909116815260200160405180910390a1565b6001600160a01b03821661124b5760405162461bcd60e51b815260206004820152601f60248201527f45524332303a206d696e7420746f20746865207a65726f206164647265737300604482015260640161070a565b61125760008383611490565b80600260008282546112699190611a52565b90915550506001600160a01b038216600081815260208181526040808320805486019055518481527fddf252ad1be2c89b69c2b068fc378daa952ba7f163c4a11628f55a4df523b3ef910160405180910390a35050565b6001600160a01b0382166113205760405162461bcd60e51b815260206004820152602160248201527f45524332303a206275726e2066726f6d20746865207a65726f206164647265736044820152607360f81b606482015260840161070a565b61132c82600083611490565b6001600160a01b038216600090815260208190526040902054818110156113a05760405162461bcd60e51b815260206004820152602260248201527f45524332303a206275726e20616d6f756e7420657863656564732062616c616e604482015261636560f01b606482015260840161070a565b6001600160a01b0383166000818152602081815260408083208686039055600280548790039055518581529192917fddf252ad1be2c89b69c2b068fc378daa952ba7f163c4a11628f55a4df523b3ef910160405180910390a3505050565b6001600160a01b0381166000908152600960205260409020546114249062015180611a52565b4210610775576001600160a01b0316600090815260086020908152604080832083905560099091529020429055565b61145b611599565b6005805460ff191660011790557f62e78cea01bee320cd4e420270b5ea74000d11b0c9f74754ebdbfc544b05a2586111d83390565b60055460ff16156106995760405162461bcd60e51b815260206004820152602960248201527f43616d7075734372656469743a20746f6b656e207472616e73666572207768696044820152681b19481c185d5cd95960ba1b606482015260840161070a565b6114ff8282610b37565b61071d5761150c816115df565b6115178360206115f1565b604051602001611528929190611ca1565b60408051601f198184030181529082905262461bcd60e51b825261070a916004016117e2565b60055460ff166115975760405162461bcd60e51b815260206004820152601460248201527314185d5cd8589b194e881b9bdd081c185d5cd95960621b604482015260640161070a565b565b60055460ff16156115975760405162461bcd60e51b815260206004820152601060248201526f14185d5cd8589b194e881c185d5cd95960821b604482015260640161070a565b606061053b6001600160a01b03831660145b60606000611600836002611b5b565b61160b906002611a52565b67ffffffffffffffff811115611623576116236118f8565b6040519080825280601f01601f19166020018201604052801561164d576020820181803683370190505b509050600360fc1b8160008151811061166857611668611d16565b60200101906001600160f81b031916908160001a905350600f60fb1b8160018151811061169757611697611d16565b60200101906001600160f81b031916908160001a90535060006116bb846002611b5b565b6116c6906001611a52565b90505b600181111561173e576f181899199a1a9b1b9c1cb0b131b232b360811b85600f16601081106116fa576116fa611d16565b1a60f81b82828151811061171057611710611d16565b60200101906001600160f81b031916908160001a90535060049490941c9361173781611d2c565b90506116c9565b50831561178d5760405162461bcd60e51b815260206004820181905260248201527f537472696e67733a20686578206c656e67746820696e73756666696369656e74604482015260640161070a565b9392505050565b6000602082840312156117a657600080fd5b81356001600160e01b03198116811461178d57600080fd5b60005b838110156117d95781810151838201526020016117c1565b50506000910152565b60208152600082518060208401526118018160408501602087016117be565b601f01601f19169190910160400192915050565b80356001600160a01b038116811461182c57600080fd5b919050565b6000806040838503121561184457600080fd5b61184d83611815565b946020939093013593505050565b60006020828403121561186d57600080fd5b61178d82611815565b60008060006060848603121561188b57600080fd5b61189484611815565b92506118a260208501611815565b929592945050506040919091013590565b6000602082840312156118c557600080fd5b5035919050565b600080604083850312156118df57600080fd5b823591506118ef60208401611815565b90509250929050565b634e487b7160e01b600052604160045260246000fd5b6000806040838503121561192157600080fd5b61192a83611815565b9150602083013567ffffffffffffffff81111561194657600080fd5b8301601f8101851361195757600080fd5b803567ffffffffffffffff811115611971576119716118f8565b604051601f8201601f19908116603f0116810167ffffffffffffffff811182821017156119a0576119a06118f8565b6040528181528282016020018710156119b857600080fd5b816020840160208301376000602083830101528093505050509250929050565b600080604083850312156119eb57600080fd5b6119f483611815565b91506118ef60208401611815565b600181811c90821680611a1657607f821691505b602082108103611a3657634e487b7160e01b600052602260045260246000fd5b50919050565b634e487b7160e01b600052601160045260246000fd5b8082018082111561053b5761053b611a3c565b6001815b6001841115611aa057808504811115611a8457611a84611a3c565b6001841615611a9257908102905b60019390931c928002611a69565b935093915050565b600082611ab75750600161053b565b81611ac45750600061053b565b8160018114611ada5760028114611ae457611b00565b600191505061053b565b60ff841115611af557611af5611a3c565b50506001821b61053b565b5060208310610133831016604e8410600b8410161715611b23575081810a61053b565b611b306000198484611a65565b8060001904821115611b4457611b44611a3c565b029392505050565b600061178d60ff841683611aa8565b808202811582820484141761053b5761053b611a3c565b600082611b8f57634e487b7160e01b600052601260045260246000fd5b500490565b601f82111561069957806000526020600020601f840160051c81016020851015611bbb5750805b601f840160051c820191505b81811015611bdb5760008155600101611bc7565b5050505050565b815167ffffffffffffffff811115611bfc57611bfc6118f8565b611c1081611c0a8454611a02565b84611b94565b6020601f821160018114611c445760008315611c2c5750848201515b600019600385901b1c1916600184901b178455611bdb565b600084815260208120601f198516915b82811015611c745787850151825560209485019460019092019101611c54565b5084821015611c925786840151600019600387901b60f8161c191681555b50505050600190811b01905550565b7f416363657373436f6e74726f6c3a206163636f756e7420000000000000000000815260008351611cd98160178501602088016117be565b7001034b99036b4b9b9b4b733903937b6329607d1b6017918401918201528351611d0a8160288401602088016117be565b01602801949350505050565b634e487b7160e01b600052603260045260246000fd5b600081611d3b57611d3b611a3c565b50600019019056fea164736f6c634300081c000a",
  "linkReferences": {},
  "deployedLinkReferences": {}
}