{
  "_format": "hh-sol-artifact-1",
  "contractName": "CampusBadge",
  "sourceName": "contracts/CampusBadge.sol",
  "abi": [
    {
      "inputs": [],
      "stateMutability": "nonpayable",
      "type": "constructor"
    },
    {
      "inputs": [],
      "name": "CertificateIsExpired",
      "type": "error"
    },
    {
      "inputs": [],
      "name": "CertificateTypeDoesNotExist",
      "type": "error"
    },
    {
      "inputs": [],
      "name": "MaxSupplyExceeded",
      "type": "error"
    },
    {
      "inputs": [],
      "name": "StudentHasNoBadges",
      "type": "error"
    },
    {
      "anonymous": false,
      "inputs": [
        {
          "indexed": true,
          "internalType": "address",
          "name": "account",
          "type": "address"
        },
        {
          "indexed": true,
          "internalType": "address",
          "name": "operator",
          "type": "address"
        },
        {
          "indexed": false,
          "internalType": "bool",
          "name": "approved",
          "type": "bool"
        }
      ],
      "name": "ApprovalForAll",
      "type": "event"
    },
    {
      "anonymous": false,
      "inputs": [
        {
          "indexed": false,
          "internalType": "address",
          "name": "account",
          "type": "address"
        }
      ],
      "name": "Paused",
      "type": "event"
    },
    {
      "anonymous": false,
      "inputs": [
        {
          "indexed": true,
          "internalType": "bytes32",
          "name": "role",
          "type": "bytes32"
        },
        {
          "indexed": true,
          "internalType": "bytes32",
          "name": "previousAdminRole",
          "type": "bytes32"
        },
        {
          "indexed": true,
          "internalType": "bytes32",
          "name": "newAdminRole",
          "type": "bytes32"
        }
      ],
      "name": "RoleAdminChanged",
      "type": "event"
    },
    {
      "anonymous": false,
      "inputs": [
        {
          "indexed": true,
          "internalType": "bytes32",
          "name": "role",
          "type": "bytes32"
        },
        {
          "indexed": true,
          "internalType": "address",
          "name": "account",
          "type": "address"
        },
        {
          "indexed": true,
          "internalType": "address",
          "name": "sender",
          "type": "address"
        }
      ],
      "name": "RoleGranted",
      "type": "event"
    },
    {
      "anonymous": false,
      "inputs": [
        {
          "indexed": true,
          "internalType": "bytes32",
          "name": "role",
          "type": "bytes32"
        },
        {
          "indexed": true,
          "internalType": "address",
          "name": "account",
          "type": "address"
        },
        {
          "indexed": true,
          "internalType": "address",
          "name": "sender",
          "type": "address"
        }
      ],
      "name": "RoleRevoked",
      "type": "event"
    },
    {
      "anonymous": false,
      "inputs": [
        {
          "indexed": true,
          "internalType": "address",
          "name": "operator",
          "type": "address"
        },
        {
          "indexed": true,
          "internalType": "address",
          "name": "from",
          "type": "address"
        },
        {
          "indexed": true,
          "internalType": "address",
          "name": "to",
          "type": "address"
        },
        {
          "indexed": false,
          "internalType": "uint256[]",
          "name": "ids",
          "type": "uint256[]"
        },
        {
          "indexed": false,
          "internalType": "uint256[]",
          "name": "values",
          "type": "uint256[]"
        }
      ],
      "name": "TransferBatch",
      "type": "event"
    },
    {
      "anonymous": false,
      "inputs": [
        {
          "indexed": true,
          "internalType": "address",
          "name": "operator",
          "type": "address"
        },
        {
          "indexed": true,
          "internalType": "address",
          "name": "from",
          "type": "address"
        },
        {
          "indexed": true,
          "internalType": "address",
          "name": "to",
          "type": "address"
        },
        {
          "indexed": false,
          "internalType": "uint256",
          "name": "id",
          "type": "uint256"
        },
        {
          "indexed": false,
          "internalType": "uint256",
          "name": "value",
          "type": "uint256"
        }
      ],
      "name": "TransferSingle",
      "type": "event"
    },
    {
      "anonymous": false,
      "inputs": [
        {
          "indexed": false,
          "internalType": "string",
          "name": "value",
          "type": "string"
        },
        {
          "indexed": true,
          "internalType": "uint256",
          "name": "id",
          "type": "uint256"
        }
      ],
      "name": "URI",
      "type": "event"
    },
    {
      "anonymous": false,
      "inputs": [
        {
          "indexed": false,
          "internalType": "address",
          "name": "account",
          "type": "address"
        }
      ],
      "name": "Unpaused",
      "type": "event"
    },
    {
      "inputs": [],
      "name": "ACHIEVEMENT_BASE",
      "outputs": [
        {
          "internalType": "uint256",
          "name": "",
          "type": "uint256"
        }
      ],
      "stateMutability": "view",
      "type": "function"
    },
    {
      "inputs": [],
      "name": "CERTIFICATE_BASE",
      "outputs": [
        {
          "internalType": "uint256",
          "name": "",
          "type": "uint256"
        }
      ],
      "stateMutability": "view",
      "type": "function"
    },
    {
      "inputs": [],
      "name": "DEFAULT_ADMIN_ROLE",
      "outputs": [
        {
          "internalType": "bytes32",
          "name": "",
          "type": "bytes32"
        }
      ],
      "stateMutability": "view",
      "type": "function"
    },
    {
      "inputs": [],
      "name": "EVENT_BADGE_BASE",
      "outputs": [
        {
          "internalType": "uint256",
          "name": "",
          "type": "uint256"
        }
      ],
      "stateMutability": "view",
      "type": "function"
    },
    {
      "inputs": [],
      "name": "MINTER_ROLE",
      "outputs": [
        {
          "internalType": "bytes32",
          "name": "",
          "type": "bytes32"
        }
      ],
      "stateMutability": "view",
      "type": "function"
    },
    {
      "inputs": [],
      "name": "PAUSER_ROLE",
      "outputs": [
        {
          "internalType": "bytes32",
          "name": "",
          "type": "bytes32"
        }
      ],
      "stateMutability": "view",
      "type": "function"
    },
    {
      "inputs": [],
      "name": "URI_SETTER_ROLE",
      "outputs": [
        {
          "internalType": "bytes32",
          "name": "",
          "type": "bytes32"
        }
      ],
      "stateMutability": "view",
      "type": "function"
    },
    {
      "inputs": [],
      "name": "WORKSHOP_BASE",
      "outputs": [
        {
          "internalType": "uint256",
          "name": "",
          "type": "uint256"
        }
      ],
      "stateMutability": "view",
      "type": "function"
    },
    {
      "inputs": [
        {
          "internalType": "address",
          "name": "account",
          "type": "address"
        },
        {
          "internalType": "uint256",
          "name": "id",
          "type": "uint256"
        }
      ],
      "name": "balanceOf",
      "outputs": [
        {
          "internalType": "uint256",
          "name": "",
          "type": "uint256"
        }
      ],
      "stateMutability": "view",
      "type": "function"
    },
    {
      "inputs": [
        {
          "internalType": "address[]",
          "name": "accounts",
          "type": "address[]"
        },
        {
          "internalType": "uint256[]",
          "name": "ids",
          "type": "uint256[]"
        }
      ],
      "name": "balanceOfBatch",
      "outputs": [
        {
          "internalType": "uint256[]",
          "name": "",
          "type": "uint256[]"
        }
      ],
      "stateMutability": "view",
      "type": "function"
    },
    {
      "inputs": [
        {
          "internalType": "string",
          "name": "name",
          "type": "string"
        },
        {
          "internalType": "uint256",
          "name": "maxSupply",
          "type": "uint256"
        },
        {
          "internalType": "string",
          "name": "certificateURI",
          "type": "string"
        }
      ],
      "name": "createCertificateType",
      "outputs": [
        {
          "internalType": "uint256",
          "name": "",
          "type": "uint256"
        }
      ],
      "stateMutability": "nonpayable",
      "type": "function"
    },
    {
      "inputs": [
        {
          "internalType": "string",
          "name": "seriesName",
          "type": "string"
        },
        {
          "internalType": "uint256",
          "name": "totalSessions",
          "type": "uint256"
        }
      ],
      "name": "createWorkshopSeries",
      "outputs": [
        {
          "internalType": "uint256[]",
          "name": "",
          "type": "uint256[]"
        }
      ],
      "stateMutability": "nonpayable",
      "type": "function"
    },
    {
      "inputs": [
        {
          "internalType": "uint256",
          "name": "",
          "type": "uint256"
        },
        {
          "internalType": "address",
          "name": "",
          "type": "address"
        }
      ],
      "name": "earnedAt",
      "outputs": [
        {
          "internalType": "uint256",
          "name": "",
          "type": "uint256"
        }
      ],
      "stateMutability": "view",
      "type": "function"
    },
    {
      "inputs": [
        {
          "internalType": "uint256",
          "name": "id",
          "type": "uint256"
        }
      ],
      "name": "exists",
      "outputs": [
        {
          "internalType": "bool",
          "name": "",
          "type": "bool"
        }
      ],
      "stateMutability": "view",
      "type": "function"
    },
    {
      "inputs": [
        {
          "internalType": "bytes32",
          "name": "role",
          "type": "bytes32"
        }
      ],
      "name": "getRoleAdmin",
      "outputs": [
        {
          "internalType": "bytes32",
          "name": "",
          "type": "bytes32"
        }
      ],
      "stateMutability": "view",
      "type": "function"
    },
    {
      "inputs": [
        {
          "internalType": "address",
          "name": "student",
          "type": "address"
        }
      ],
      "name": "getStudentBadges",
      "outputs": [
        {
          "internalType": "uint256[]",
          "name": "",
          "type": "uint256[]"
        }
      ],
      "stateMutability": "view",
      "type": "function"
    },
    {
      "inputs": [
        {
          "internalType": "address",
          "name": "student",
          "type": "address"
        },
        {
          "internalType": "string",
          "name": "achievementName",
          "type": "string"
        },
        {
          "internalType": "uint256",
          "name": "rarity",
          "type": "uint256"
        }
      ],
      "name": "grantAchievement",
      "outputs": [
        {
          "internalType": "uint256",
          "name": "",
          "type": "uint256"
        }
      ],
      "stateMutability": "nonpayable",
      "type": "function"
    },
    {
      "inputs": [
        {
          "internalType": "bytes32",
          "name": "role",
          "type": "bytes32"
        },
        {
          "internalType": "address",
          "name": "account",
          "type": "address"
        }
      ],
      "name": "grantRole",
      "outputs": [],
      "stateMutability": "nonpayable",
      "type": "function"
    },
    {
      "inputs": [
        {
          "internalType": "bytes32",
          "name": "role",
          "type": "bytes32"
        },
        {
          "internalType": "address",
          "name": "account",
          "type": "address"
        }
      ],
      "name": "hasRole",
      "outputs": [
        {
          "internalType": "bool",
          "name": "",
          "type": "bool"
        }
      ],
      "stateMutability": "view",
      "type": "function"
    },
    {
      "inputs": [
        {
          "internalType": "address",
          "name": "account",
          "type": "address"
        },
        {
          "internalType": "address",
          "name": "operator",
          "type": "address"
        }
      ],
      "name": "isApprovedForAll",
      "outputs": [
        {
          "internalType": "bool",
          "name": "",
          "type": "bool"
        }
      ],
      "stateMutability": "view",
      "type": "function"
    },
    {
      "inputs": [
        {
          "internalType": "address",
          "name": "student",
          "type": "address"
        },
        {
          "internalType": "uint256",
          "name": "certificateType",
          "type": "uint256"
        },
        {
          "internalType": "string",
          "name": "additionalData",
          "type": "string"
        }
      ],
      "name": "issueCertificate",
      "outputs": [],
      "stateMutability": "nonpayable",
      "type": "function"
    },
    {
      "inputs": [
        {
          "internalType": "address[]",
          "name": "attendees",
          "type": "address[]"
        },
        {
          "internalType": "uint256",
          "name": "eventId",
          "type": "uint256"
        },
        {
          "internalType": "uint256",
          "name": "amount",
          "type": "uint256"
        }
      ],
      "name": "mintEventBadges",
      "outputs": [],
      "stateMutability": "nonpayable",
      "type": "function"
    },
    {
      "inputs": [],
      "name": "pause",
      "outputs": [],
      "stateMutability": "nonpayable",
      "type": "function"
    },
    {
      "inputs": [],
      "name": "paused",
      "outputs": [
        {
          "internalType": "bool",
          "name": "",
          "type": "bool"
        }
      ],
      "stateMutability": "view",
      "type": "function"
    },
    {
      "inputs": [
        {
          "internalType": "bytes32",
          "name": "role",
          "type": "bytes32"
        },
        {
          "internalType": "address",
          "name": "account",
          "type": "address"
        }
      ],
      "name": "renounceRole",
      "outputs": [],
      "stateMutability": "nonpayable",
      "type": "function"
    },
    {
      "inputs": [
        {
          "internalType": "bytes32",
          "name": "role",
          "type": "bytes32"
        },
        {
          "internalType": "address",
          "name": "account",
          "type": "address"
        }
      ],
      "name": "revokeRole",
      "outputs": [],
      "stateMutability": "nonpayable",
      "type": "function"
    },
    {
      "inputs": [
        {
          "internalType": "address",
          "name": "from",
          "type": "address"
        },
        {
          "internalType": "address",
          "name": "to",
          "type": "address"
        },
        {
          "internalType": "uint256[]",
          "name": "ids",
          "type": "uint256[]"
        },
        {
          "internalType": "uint256[]",
          "name": "amounts",
          "type": "uint256[]"
        },
        {
          "internalType": "bytes",
          "name": "data",
          "type": "bytes"
        }
      ],
      "name": "safeBatchTransferFrom",
      "outputs": [],
      "stateMutability": "nonpayable",
      "type": "function"
    },
    {
      "inputs": [
        {
          "internalType": "address",
          "name": "from",
          "type": "address"
        },
        {
          "internalType": "address",
          "name": "to",
          "type": "address"
        },
        {
          "internalType": "uint256",
          "name": "id",
          "type": "uint256"
        },
        {
          "internalType": "uint256",
          "name": "amount",
          "type": "uint256"
        },
        {
          "internalType": "bytes",
          "name": "data",
          "type": "bytes"
        }
      ],
      "name": "safeTransferFrom",
      "outputs": [],
      "stateMutability": "nonpayable",
      "type": "function"
    },
    {
      "inputs": [
        {
          "internalType": "address",
          "name": "operator",
          "type": "address"
        },
        {
          "internalType": "bool",
          "name": "approved",
          "type": "bool"
        }
      ],
      "name": "setApprovalForAll",
      "outputs": [],
      "stateMutability": "nonpayable",
      "type": "function"
    },
    {
      "inputs": [
        {
          "internalType": "uint256",
          "name": "tokenId",
          "type": "uint256"
        },
        {
          "internalType": "string",
          "name": "newuri",
          "type": "string"
        }
      ],
      "name": "setTokenURI",
      "outputs": [],
      "stateMutability": "nonpayable",
      "type": "function"
    },
    {
      "inputs": [
        {
          "internalType": "address",
          "name": "",
          "type": "address"
        },
        {
          "internalType": "uint256",
          "name": "",
          "type": "uint256"
        }
      ],
      "name": "studentBadges",
      "outputs": [
        {
          "internalType": "uint256",
          "name": "",
          "type": "uint256"
        }
      ],
      "stateMutability": "view",
      "type": "function"
    },
    {
      "inputs": [
        {
          "internalType": "bytes4",
          "name": "interfaceId",
          "type": "bytes4"
        }
      ],
      "name": "supportsInterface",
      "outputs": [
        {
          "internalType": "bool",
          "name": "",
          "type": "bool"
        }
      ],
      "stateMutability": "view",
      "type": "function"
    },
    {
      "inputs": [
        {
          "internalType": "uint256",
          "name": "",
          "type": "uint256"
        }
      ],
      "name": "tokenInfo",
      "outputs": [
        {
          "internalType": "string",
          "name": "name",
          "type": "string"
        },
        {
          "internalType": "string",
          "name": "category",
          "type": "string"
        },
        {
          "internalType": "uint256",
          "name": "maxSupply",
          "type": "uint256"
        },
        {
          "internalType": "bool",
          "name": "isTransferable",
          "type": "bool"
        },
        {
          "internalType": "uint256",
          "name": "validUntil",
          "type": "uint256"
        },
        {
          "internalType": "address",
          "name": "issuer",
          "type": "address"
        }
      ],
      "stateMutability": "view",
      "type": "function"
    },
    {
      "inputs": [
        {
          "internalType": "uint256",
          "name": "id",
          "type": "uint256"
        }
      ],
      "name": "totalSupply",
      "outputs": [
        {
          "internalType": "uint256",
          "name": "",
          "type": "uint256"
        }
      ],
      "stateMutability": "view",
      "type": "function"
    },
    {
      "inputs": [],
      "name": "unpause",
      "outputs": [],
      "stateMutability": "nonpayable",
      "type": "function"
    },
    {
      "inputs": [
        {
          "internalType": "uint256",
          "name": "tokenId",
          "type": "uint256"
        }
      ],
      "name": "uri",
      "outputs": [
        {
          "internalType": "string",
          "name": "",
          "type": "string"
        }
      ],
      "stateMutability": "view",
      "type": "function"
    },
    {
      "inputs": [
        {
          "internalType": "address",
          "name": "student",
          "type": "address"
        },
        {
          "internalType": "uint256",
          "name": "tokenId",
          "type": "uint256"
        }
      ],
      "name": "verifyBadge",
      "outputs": [
        {
          "internalType": "bool",
          "name": "isValid",
          "type": "bool"
        },
        {
          "internalType": "uint256",
          "name": "earnedTimestamp",
          "type": "uint256"
        }
      ],
      "stateMutability": "view",
      "type": "function"
    }
  ],
  "bytecode": "0x608060405234801561001057600080fd5b50604080516020810190915260008152610029816100c2565b506004805460ff1916905561003f6000336100d2565b6100697f7804d923f43a17d325d77e781528e0793b2edd9890ab45fc64efd7b4b427744c336100d2565b6100937f65d7a28e3265b37a6474929f336521b332c1681b933f6cb9f3376673440d862a336100d2565b6100bd7f9f2df0fed2c77648de5860a4cc508cd0818c85b8b8a1ab4ceeef8d981c8956a6336100d2565b6102d1565b60026100ce8282610213565b5050565b60008281526003602090815260408083206001600160a01b038516845290915290205460ff166100ce5760008281526003602090815260408083206001600160a01b03851684529091529020805460ff191660011790556101303390565b6001600160a01b0316816001600160a01b0316837f2f8788117e7eff1d82e926ec794901d17c78024a50270940304540a733656f0d60405160405180910390a45050565b634e487b7160e01b600052604160045260246000fd5b600181811c9082168061019e57607f821691505b6020821081036101be57634e487b7160e01b600052602260045260246000fd5b50919050565b601f82111561020e57806000526020600020601f840160051c810160208510156101eb5750805b601f840160051c820191505b8181101561020b57600081556001016101f7565b50505b505050565b81516001600160401b0381111561022c5761022c610174565b6102408161023a845461018a565b846101c4565b6020601f821160018114610274576000831561025c5750848201515b600019600385901b1c1916600184901b17845561020b565b600084815260208120601f198516915b828110156102a45787850151825560209485019460019092019101610284565b50848210156102c25786840151600019600387901b60f8161c191681555b50505050600190811b01905550565b612ef3806102e06000396000f3fe608060405234801561001057600080fd5b50600436106102265760003560e01c80637f34571011610130578063d47c4807116100b8578063e46ed6a51161007c578063e46ed6a5146104ee578063e63ab1e9146104f7578063e8e7e97c1461051e578063e985e9c514610549578063f242432a1461058557600080fd5b8063d47c480714610497578063d5391393146104a0578063d547741f146104b5578063d679ec75146104c8578063db06068b146104db57600080fd5b8063a217fddf116100ff578063a217fddf1461042e578063a22cb46514610436578063a25a5eac14610449578063bd85b03914610452578063cc33c8751461047257600080fd5b80637f345710146103d95780638456cb591461040057806391d14854146104085780639ee8921b1461041b57600080fd5b80632f2ff15d116101b35780634e1273f4116101825780634e1273f41461037d5780634f558e7914610390578063547cd644146103b25780635c975abb146103c5578063742efb45146103d057600080fd5b80632f2ff15d1461032f57806336568abe146103425780633f4ba83a1461035557806343fd0c371461035d57600080fd5b80630e89341c116101fa5780630e89341c1461029c578063162094c4146102bc578063248a9ca3146102cf5780632685db70146102f25780632eb2c2d61461031c57600080fd5b8062fdd58e1461022b57806301ffc9a71461025157806302d9af5a146102745780630ce51f5614610287575b600080fd5b61023e6102393660046122b5565b610598565b6040519081526020015b60405180910390f35b61026461025f3660046122f5565b610631565b6040519015158152602001610248565b61023e6102823660046123d2565b61063c565b61029a610295366004612442565b610784565b005b6102af6102aa366004612482565b6109da565b60405161024891906124eb565b61029a6102ca3660046124fe565b610a7c565b61023e6102dd366004612482565b60009081526003602052604090206001015490565b6103056103003660046122b5565b610ac4565b604080519215158352602083019190915201610248565b61029a61032a3660046125d1565b610b4d565b61029a61033d366004612684565b610b99565b61029a610350366004612684565b610bc3565b61029a610c41565b61037061036b3660046126b0565b610c76565b6040516102489190612730565b61037061038b3660046127b4565b610e12565b61026461039e366004612482565b600090815260056020526040902054151590565b61023e6103c03660046122b5565b610f33565b60045460ff16610264565b61023e610bb881565b61023e7f7804d923f43a17d325d77e781528e0793b2edd9890ab45fc64efd7b4b427744c81565b61029a610f64565b610264610416366004612684565b610f96565b610370610429366004612811565b610fc1565b61023e600081565b61029a61044436600461282c565b61102c565b61023e6107d081565b61023e610460366004612482565b60009081526005602052604090205490565b610485610480366004612482565b611037565b60405161024896959493929190612868565b61023e6103e881565b61023e600080516020612ec783398151915281565b61029a6104c3366004612684565b611189565b61029a6104d63660046128bc565b6111ae565b61023e6104e9366004612909565b611256565b61023e610fa081565b61023e7f65d7a28e3265b37a6474929f336521b332c1681b933f6cb9f3376673440d862a81565b61023e61052c366004612684565b600a60209081526000928352604080842090915290825290205481565b610264610557366004612960565b6001600160a01b03918216600090815260016020908152604080832093909416825291909152205460ff1690565b61029a61059336600461298a565b6113c4565b60006001600160a01b0383166106085760405162461bcd60e51b815260206004820152602a60248201527f455243313135353a2061646472657373207a65726f206973206e6f742061207660448201526930b634b21037bbb732b960b11b60648201526084015b60405180910390fd5b506000818152602081815260408083206001600160a01b03861684529091529020545b92915050565b600061062b82611409565b6000600080516020612ec78339815191526106568161142e565b600b805460009182610667836129f8565b90915550610677906103e8612a11565b6040805160c08101825288815281518083018352600b81526a436572746966696361746560a81b60208281019190915280830191909152818301899052600060608301819052608083018190523360a08401528481526006909152919091208151929350909182919081906106ec9082612aa5565b50602082015160018201906107019082612aa5565b506040828101516002830155606083015160038301805460ff19169115159190911790556080830151600483015560a090920151600590910180546001600160a01b0319166001600160a01b0390921691909117905560008381526008602090815282822082905560079052206107788682612aa5565b50909695505050505050565b600080516020612ec783398151915261079c8161142e565b600083815260066020526040808220815160c081019092528054829082906107c390612a24565b80601f01602080910402602001604051908101604052809291908181526020018280546107ef90612a24565b801561083c5780601f106108115761010080835404028352916020019161083c565b820191906000526020600020905b81548152906001019060200180831161081f57829003601f168201915b5050505050815260200160018201805461085590612a24565b80601f016020809104026020016040519081016040528092919081815260200182805461088190612a24565b80156108ce5780601f106108a3576101008083540402835291602001916108ce565b820191906000526020600020905b8154815290600101906020018083116108b157829003601f168201915b505050918352505060028201546020820152600382015460ff1615156040820152600482015460608201526005909101546001600160a01b031660809091015280515190915060000361093457604051630314604960e21b815260040160405180910390fd5b600084815260086020526040908190205490820151811061096857604051638a164f6360e01b815260040160405180910390fd5b6000858152600860205260408120805491610982836129f8565b91905055506109948686600187611438565b5050506000828152600a602090815260408083206001600160a01b0390961683529481528482204290556009815293812080546001810182559082529390209092015550565b60008181526007602052604090208054606091906109f790612a24565b80601f0160208091040260200160405190810160405280929190818152602001828054610a2390612a24565b8015610a705780601f10610a4557610100808354040283529160200191610a70565b820191906000526020600020905b815481529060010190602001808311610a5357829003601f168201915b50505050509050919050565b7f7804d923f43a17d325d77e781528e0793b2edd9890ab45fc64efd7b4b427744c610aa68161142e565b6000838152600760205260409020610abe8382612aa5565b50505050565b600080610ad18484610598565b600003610af1576040516302bfbc5f60e61b815260040160405180910390fd5b6000838152600660205260409020600401541580610b1f575060008381526006602052604090206004015442105b6000938452600a602090815260408086206001600160a01b0397909716865295905293909220549293915050565b6001600160a01b038516331480610b695750610b698533610557565b610b855760405162461bcd60e51b81526004016105ff90612b63565b610b92858585858561155b565b5050505050565b600082815260036020526040902060010154610bb48161142e565b610bbe8383611737565b505050565b6001600160a01b0381163314610c335760405162461bcd60e51b815260206004820152602f60248201527f416363657373436f6e74726f6c3a2063616e206f6e6c792072656e6f756e636560448201526e103937b632b9903337b91039b2b63360891b60648201526084016105ff565b610c3d82826117bd565b5050565b7f65d7a28e3265b37a6474929f336521b332c1681b933f6cb9f3376673440d862a610c6b8161142e565b610c73611824565b50565b6060600080516020612ec7833981519152610c908161142e565b6000836001600160401b03811115610caa57610caa612312565b604051908082528060200260200182016040528015610cd3578160200160208202803683370190505b50905060005b84811015610e0957600e805460009182610cf2836129f8565b90915550610d0290610fa0612a11565b6040805160c0810182528981528151808301835260088152670576f726b73686f760c41b602082810191909152808301919091528183018a9052600060608301819052608083018190523360a0840152848152600690915291909120815192935090918291908190610d749082612aa5565b5060208201516001820190610d899082612aa5565b5060408201516002820155606082015160038201805460ff19169115159190911790556080820151600482015560a090910151600590910180546001600160a01b0319166001600160a01b0390921691909117905583518290859085908110610df457610df4612bb1565b60209081029190910101525050600101610cd9565b50949350505050565b60608151835114610e775760405162461bcd60e51b815260206004820152602960248201527f455243313135353a206163636f756e747320616e6420696473206c656e677468604482015268040dad2e6dac2e8c6d60bb1b60648201526084016105ff565b600083516001600160401b03811115610e9257610e92612312565b604051908082528060200260200182016040528015610ebb578160200160208202803683370190505b50905060005b8451811015610f2b57610f06858281518110610edf57610edf612bb1565b6020026020010151858381518110610ef957610ef9612bb1565b6020026020010151610598565b828281518110610f1857610f18612bb1565b6020908102919091010152600101610ec1565b509392505050565b60096020528160005260406000208181548110610f4f57600080fd5b90600052602060002001600091509150505481565b7f65d7a28e3265b37a6474929f336521b332c1681b933f6cb9f3376673440d862a610f8e8161142e565b610c73611876565b60009182526003602090815260408084206001600160a01b0393909316845291905290205460ff1690565b6001600160a01b038116600090815260096020908152604091829020805483518184028101840190945280845260609392830182828015610a7057602002820191906000526020600020905b81548152602001906001019080831161100d5750505050509050919050565b610c3d3383836118b3565b60066020526000908152604090208054819061105290612a24565b80601f016020809104026020016040519081016040528092919081815260200182805461107e90612a24565b80156110cb5780601f106110a0576101008083540402835291602001916110cb565b820191906000526020600020905b8154815290600101906020018083116110ae57829003601f168201915b5050505050908060010180546110e090612a24565b80601f016020809104026020016040519081016040528092919081815260200182805461110c90612a24565b80156111595780601f1061112e57610100808354040283529160200191611159565b820191906000526020600020905b81548152906001019060200180831161113c57829003601f168201915b505050506002830154600384015460048501546005909501549394919360ff90911692506001600160a01b031686565b6000828152600360205260409020600101546111a48161142e565b610bbe83836117bd565b600080516020612ec78339815191526111c68161142e565b60006111d4846107d0612a11565b905060005b855181101561124e5760008682815181106111f6576111f6612bb1565b6020026020010151905061121b81848760405180602001604052806000815250611438565b6001600160a01b0316600090815260096020908152604082208054600181810183559184529190922001839055016111d9565b505050505050565b6000600080516020612ec78339815191526112708161142e565b600d805460009182611281836129f8565b9091555061129190610bb8612a11565b905060006040518060c001604052808781526020016040518060400160405280600b81526020016a1058da1a595d995b595b9d60aa1b8152508152602001866001146112f157866002146112e657600a6112e9565b60645b60ff166112f5565b6103e85b61ffff1681526000602080830182905260408084018390523360609094019390935285825260069052208151919250829181906113329082612aa5565b50602082015160018201906113479082612aa5565b506040828101516002830155606083015160038301805460ff19169115159190911790556080830151600483015560a090920151600590910180546001600160a01b0319166001600160a01b03909216919091179055805160208101909152600081526113ba9088908490600190611438565b5095945050505050565b6001600160a01b0385163314806113e057506113e08533610557565b6113fc5760405162461bcd60e51b81526004016105ff90612b63565b610b928585858585611993565b60006001600160e01b03198216637965db0b60e01b148061062b575061062b82611acb565b610c738133611b1b565b6001600160a01b0384166114985760405162461bcd60e51b815260206004820152602160248201527f455243313135353a206d696e7420746f20746865207a65726f206164647265736044820152607360f81b60648201526084016105ff565b3360006114a485611b74565b905060006114b185611b74565b90506114c283600089858589611bbf565b6000868152602081815260408083206001600160a01b038b168452909152812080548792906114f2908490612a11565b909155505060408051878152602081018790526001600160a01b03808a1692600092918716917fc3d58168c5ae7397731d063d5bbf3d657854427343f4c083240f7aacaa2d0f62910160405180910390a461155283600089898989611cd6565b50505050505050565b81518351146115bd5760405162461bcd60e51b815260206004820152602860248201527f455243313135353a2069647320616e6420616d6f756e7473206c656e677468206044820152670dad2e6dac2e8c6d60c31b60648201526084016105ff565b6001600160a01b0384166115e35760405162461bcd60e51b81526004016105ff90612bc7565b336115f2818787878787611bbf565b60005b84518110156116d157600085828151811061161257611612612bb1565b60200260200101519050600085838151811061163057611630612bb1565b602090810291909101810151600084815280835260408082206001600160a01b038e1683529093529190912054909150818110156116805760405162461bcd60e51b81526004016105ff90612c0c565b6000838152602081815260408083206001600160a01b038e8116855292528083208585039055908b168252812080548492906116bd908490612a11565b9091555050600190930192506115f5915050565b50846001600160a01b0316866001600160a01b0316826001600160a01b03167f4a39dc06d4c0dbc64b70af90fd698a233a518aa5d07e595d983b8c0526c8f7fb8787604051611721929190612c56565b60405180910390a461124e818787878787611e31565b6117418282610f96565b610c3d5760008281526003602090815260408083206001600160a01b03851684529091529020805460ff191660011790556117793390565b6001600160a01b0316816001600160a01b0316837f2f8788117e7eff1d82e926ec794901d17c78024a50270940304540a733656f0d60405160405180910390a45050565b6117c78282610f96565b15610c3d5760008281526003602090815260408083206001600160a01b0385168085529252808320805460ff1916905551339285917ff6391f5c32d9c69d2a47ea670b442974b53935d1edc7fd64eb21e047a839171b9190a45050565b61182c611eec565b6004805460ff191690557f5db9ee0a495bf2e6ff9c91a7834c1ba4fdd244a5e8aa4e537bd38aeae4b073aa335b6040516001600160a01b03909116815260200160405180910390a1565b61187e611f37565b6004805460ff191660011790557f62e78cea01bee320cd4e420270b5ea74000d11b0c9f74754ebdbfc544b05a2586118593390565b816001600160a01b0316836001600160a01b0316036119265760405162461bcd60e51b815260206004820152602960248201527f455243313135353a2073657474696e6720617070726f76616c20737461747573604482015268103337b91039b2b63360b91b60648201526084016105ff565b6001600160a01b03838116600081815260016020908152604080832094871680845294825291829020805460ff191686151590811790915591519182527f17307eab39ab6107e8899845ad3d59bd9653f200f220920489ca2b5937696c31910160405180910390a3505050565b6001600160a01b0384166119b95760405162461bcd60e51b81526004016105ff90612bc7565b3360006119c585611b74565b905060006119d285611b74565b90506119e2838989858589611bbf565b6000868152602081815260408083206001600160a01b038c16845290915290205485811015611a235760405162461bcd60e51b81526004016105ff90612c0c565b6000878152602081815260408083206001600160a01b038d8116855292528083208985039055908a16825281208054889290611a60908490612a11565b909155505060408051888152602081018890526001600160a01b03808b16928c821692918816917fc3d58168c5ae7397731d063d5bbf3d657854427343f4c083240f7aacaa2d0f62910160405180910390a4611ac0848a8a8a8a8a611cd6565b505050505050505050565b60006001600160e01b03198216636cdb3d1360e11b1480611afc57506001600160e01b031982166303a24d0760e21b145b8061062b57506301ffc9a760e01b6001600160e01b031983161461062b565b611b258282610f96565b610c3d57611b3281611f7d565b611b3d836020611f8f565b604051602001611b4e929190612c84565b60408051601f198184030181529082905262461bcd60e51b82526105ff916004016124eb565b60408051600180825281830190925260609160009190602080830190803683370190505090508281600081518110611bae57611bae612bb1565b602090810291909101015292915050565b60045460ff1615611c125760405162461bcd60e51b815260206004820152601a60248201527f546f6b656e207472616e7366657273206172652070617573656400000000000060448201526064016105ff565b60005b8351811015611cc7576001600160a01b03861615801590611c3e57506001600160a01b03851615155b15611cbf5760066000858381518110611c5957611c59612bb1565b60209081029190910181015182528101919091526040016000206003015460ff16611cbf5760405162461bcd60e51b8152602060048201526016602482015275546f6b656e206e6f74207472616e7366657261626c6560501b60448201526064016105ff565b600101611c15565b5061124e868686868686612131565b6001600160a01b0384163b1561124e5760405163f23a6e6160e01b81526001600160a01b0385169063f23a6e6190611d1a9089908990889088908890600401612cf9565b6020604051808303816000875af1925050508015611d55575060408051601f3d908101601f19168201909252611d5291810190612d3e565b60015b611e0157611d61612d5b565b806308c379a003611d9a5750611d75612d77565b80611d805750611d9c565b8060405162461bcd60e51b81526004016105ff91906124eb565b505b60405162461bcd60e51b815260206004820152603460248201527f455243313135353a207472616e7366657220746f206e6f6e2d455243313135356044820152732932b1b2b4bb32b91034b6b83632b6b2b73a32b960611b60648201526084016105ff565b6001600160e01b0319811663f23a6e6160e01b146115525760405162461bcd60e51b81526004016105ff90612df2565b6001600160a01b0384163b1561124e5760405163bc197c8160e01b81526001600160a01b0385169063bc197c8190611e759089908990889088908890600401612e3a565b6020604051808303816000875af1925050508015611eb0575060408051601f3d908101601f19168201909252611ead91810190612d3e565b60015b611ebc57611d61612d5b565b6001600160e01b0319811663bc197c8160e01b146115525760405162461bcd60e51b81526004016105ff90612df2565b60045460ff16611f355760405162461bcd60e51b815260206004820152601460248201527314185d5cd8589b194e881b9bdd081c185d5cd95960621b60448201526064016105ff565b565b60045460ff1615611f355760405162461bcd60e51b815260206004820152601060248201526f14185d5cd8589b194e881c185d5cd95960821b60448201526064016105ff565b606061062b6001600160a01b03831660145b60606000611f9e836002612e98565b611fa9906002612a11565b6001600160401b03811115611fc057611fc0612312565b6040519080825280601f01601f191660200182016040528015611fea576020820181803683370190505b509050600360fc1b8160008151811061200557612005612bb1565b60200101906001600160f81b031916908160001a905350600f60fb1b8160018151811061203457612034612bb1565b60200101906001600160f81b031916908160001a9053506000612058846002612e98565b612063906001612a11565b90505b60018111156120db576f181899199a1a9b1b9c1cb0b131b232b360811b85600f166010811061209757612097612bb1565b1a60f81b8282815181106120ad576120ad612bb1565b60200101906001600160f81b031916908160001a90535060049490941c936120d481612eaf565b9050612066565b50831561212a5760405162461bcd60e51b815260206004820181905260248201527f537472696e67733a20686578206c656e67746820696e73756666696369656e7460448201526064016105ff565b9392505050565b6001600160a01b0385166121af5760005b83518110156121ad5782818151811061215d5761215d612bb1565b60200260200101516005600086848151811061217b5761217b612bb1565b6020026020010151815260200190815260200160002060008282546121a09190612a11565b9091555050600101612142565b505b6001600160a01b03841661124e5760005b83518110156115525760008482815181106121dd576121dd612bb1565b6020026020010151905060008483815181106121fb576121fb612bb1565b602002602001015190506000600560008481526020019081526020016000205490508181101561227e5760405162461bcd60e51b815260206004820152602860248201527f455243313135353a206275726e20616d6f756e74206578636565647320746f74604482015267616c537570706c7960c01b60648201526084016105ff565b600092835260056020526040909220910390556001016121c0565b80356001600160a01b03811681146122b057600080fd5b919050565b600080604083850312156122c857600080fd5b6122d183612299565b946020939093013593505050565b6001600160e01b031981168114610c7357600080fd5b60006020828403121561230757600080fd5b813561212a816122df565b634e487b7160e01b600052604160045260246000fd5b601f8201601f191681016001600160401b038111828210171561234d5761234d612312565b6040525050565b600082601f83011261236557600080fd5b8135602083016000806001600160401b0384111561238557612385612312565b50604051601f8401601f19166020019061239f8282612328565b8092508481528785850111156123b457600080fd5b84846020830137600060208683010152809550505050505092915050565b6000806000606084860312156123e757600080fd5b83356001600160401b038111156123fd57600080fd5b61240986828701612354565b9350506020840135915060408401356001600160401b0381111561242c57600080fd5b61243886828701612354565b9150509250925092565b60008060006060848603121561245757600080fd5b61246084612299565b92506020840135915060408401356001600160401b0381111561242c57600080fd5b60006020828403121561249457600080fd5b5035919050565b60005b838110156124b657818101518382015260200161249e565b50506000910152565b600081518084526124d781602086016020860161249b565b601f01601f19169290920160200192915050565b60208152600061212a60208301846124bf565b6000806040838503121561251157600080fd5b8235915060208301356001600160401b0381111561252e57600080fd5b61253a85828601612354565b9150509250929050565b60006001600160401b0382111561255d5761255d612312565b5060051b60200190565b600082601f83011261257857600080fd5b813561258381612544565b6040516125908282612328565b80915082815260208101915060208360051b8601019250858311156125b457600080fd5b602085015b838110156113ba5780358352602092830192016125b9565b600080600080600060a086880312156125e957600080fd5b6125f286612299565b945061260060208701612299565b935060408601356001600160401b0381111561261b57600080fd5b61262788828901612567565b93505060608601356001600160401b0381111561264357600080fd5b61264f88828901612567565b92505060808601356001600160401b0381111561266b57600080fd5b61267788828901612354565b9150509295509295909350565b6000806040838503121561269757600080fd5b823591506126a760208401612299565b90509250929050565b600080604083850312156126c357600080fd5b82356001600160401b038111156126d957600080fd5b6126e585828601612354565b95602094909401359450505050565b600081518084526020840193506020830160005b82811015612726578151865260209586019590910190600101612708565b5093949350505050565b60208152600061212a60208301846126f4565b600082601f83011261275457600080fd5b813561275f81612544565b60405161276c8282612328565b80915082815260208101915060208360051b86010192508583111561279057600080fd5b602085015b838110156113ba576127a681612299565b835260209283019201612795565b600080604083850312156127c757600080fd5b82356001600160401b038111156127dd57600080fd5b6127e985828601612743565b92505060208301356001600160401b0381111561280557600080fd5b61253a85828601612567565b60006020828403121561282357600080fd5b61212a82612299565b6000806040838503121561283f57600080fd5b61284883612299565b91506020830135801515811461285d57600080fd5b809150509250929050565b60c08152600061287b60c08301896124bf565b828103602084015261288d81896124bf565b60408401979097525050921515606084015260808301919091526001600160a01b031660a09091015292915050565b6000806000606084860312156128d157600080fd5b83356001600160401b038111156128e757600080fd5b6128f386828701612743565b9660208601359650604090950135949350505050565b60008060006060848603121561291e57600080fd5b61292784612299565b925060208401356001600160401b0381111561294257600080fd5b61294e86828701612354565b93969395505050506040919091013590565b6000806040838503121561297357600080fd5b61297c83612299565b91506126a760208401612299565b600080600080600060a086880312156129a257600080fd5b6129ab86612299565b94506129b960208701612299565b9350604086013592506060860135915060808601356001600160401b0381111561266b57600080fd5b634e487b7160e01b600052601160045260246000fd5b600060018201612a0a57612a0a6129e2565b5060010190565b8082018082111561062b5761062b6129e2565b600181811c90821680612a3857607f821691505b602082108103612a5857634e487b7160e01b600052602260045260246000fd5b50919050565b601f821115610bbe57806000526020600020601f840160051c81016020851015612a855750805b601f840160051c820191505b81811015610b925760008155600101612a91565b81516001600160401b03811115612abe57612abe612312565b612ad281612acc8454612a24565b84612a5e565b6020601f821160018114612b065760008315612aee5750848201515b600019600385901b1c1916600184901b178455610b92565b600084815260208120601f198516915b82811015612b365787850151825560209485019460019092019101612b16565b5084821015612b545786840151600019600387901b60f8161c191681555b50505050600190811b01905550565b6020808252602e908201527f455243313135353a2063616c6c6572206973206e6f7420746f6b656e206f776e60408201526d195c881bdc88185c1c1c9bdd995960921b606082015260800190565b634e487b7160e01b600052603260045260246000fd5b60208082526025908201527f455243313135353a207472616e7366657220746f20746865207a65726f206164604082015264647265737360d81b606082015260800190565b6020808252602a908201527f455243313135353a20696e73756666696369656e742062616c616e636520666f60408201526939103a3930b739b332b960b11b606082015260800190565b604081526000612c6960408301856126f4565b8281036020840152612c7b81856126f4565b95945050505050565b7f416363657373436f6e74726f6c3a206163636f756e7420000000000000000000815260008351612cbc81601785016020880161249b565b7001034b99036b4b9b9b4b733903937b6329607d1b6017918401918201528351612ced81602884016020880161249b565b01602801949350505050565b6001600160a01b03868116825285166020820152604081018490526060810183905260a060808201819052600090612d33908301846124bf565b979650505050505050565b600060208284031215612d5057600080fd5b815161212a816122df565b600060033d1115612d745760046000803e5060005160e01c5b90565b600060443d1015612d855790565b6040513d600319016004823e80513d60248201116001600160401b0382111715612dae57505090565b80820180516001600160401b03811115612dc9575050505090565b3d8401600319018282016020011115612de3575050505090565b610f2b60208285010185612328565b60208082526028908201527f455243313135353a204552433131353552656365697665722072656a656374656040820152676420746f6b656e7360c01b606082015260800190565b6001600160a01b0386811682528516602082015260a060408201819052600090612e66908301866126f4565b8281036060840152612e7881866126f4565b90508281036080840152612e8c81856124bf565b98975050505050505050565b808202811582820484141761062b5761062b6129e2565b600081612ebe57612ebe6129e2565b50600019019056fe9f2df0fed2c77648de5860a4cc508cd0818c85b8b8a1ab4ceeef8d981c8956a6a164736f6c634300081c000a",
  "linkReferences": {},
  "deployedLinkReferences": {}
}