{
  "_format": "hh-sol-artifact-1",
  "contractName": "StudentID",
  "sourceName": "contracts/StudentID.sol",
  "abi": [
    {
      "inputs": [],
      "stateMutability": "nonpayable",
      "type": "constructor"
    },
    {
      "anonymous": false,
      "inputs": [
        {
          "indexed": true,
          "internalType": "address",
          "name": "owner",
          "type": "address"
        },
        {
          "indexed": true,
          "internalType": "address",
          "name": "approved",
          "type": "address"
        },
        {
          "indexed": true,
          "internalType": "uint256",
          "name": "tokenId",
          "type": "uint256"
        }
      ],
      "name": "Approval",
      "type": "event"
    },
    {
      "anonymous": false,
      "inputs": [
        {
          "indexed": true,
          "internalType": "address",
          "name": "owner",
          "type": "address"
        },
        {
          "indexed": true,
          "internalType": "address",
          "name": "operator",
          "type": "address"
        },
        {
          "indexed": false,
          "internalType": "bool",
          "name": "approved",
          "type": "bool"
        }
      ],
      "name": "ApprovalForAll",
      "type": "event"
    },
    {
      "anonymous": false,
      "inputs": [
        {
          "indexed": false,
          "internalType": "uint256",
          "name": "_fromTokenId",
          "type": "uint256"
        },
        {
          "indexed": false,
          "internalType": "uint256",
          "name": "_toTokenId",
          "type": "uint256"
        }
      ],
      "name": "BatchMetadataUpdate",
      "type": "event"
    },
    {
      "anonymous": false,
      "inputs": [
        {
          "indexed": true,
          "internalType": "uint256",
          "name": "tokenId",
          "type": "uint256"
        }
      ],
      "name": "ExpiredIDBurned",
      "type": "event"
    },
    {
      "anonymous": false,
      "inputs": [
        {
          "indexed": false,
          "internalType": "uint256",
          "name": "_tokenId",
          "type": "uint256"
        }
      ],
      "name": "MetadataUpdate",
      "type": "event"
    },
    {
      "anonymous": false,
      "inputs": [
        {
          "indexed": true,
          "internalType": "address",
          "name": "previousOwner",
          "type": "address"
        },
        {
          "indexed": true,
          "internalType": "address",
          "name": "newOwner",
          "type": "address"
        }
      ],
      "name": "OwnershipTransferred",
      "type": "event"
    },
    {
      "anonymous": false,
      "inputs": [
        {
          "indexed": true,
          "internalType": "uint256",
          "name": "tokenId",
          "type": "uint256"
        },
        {
          "indexed": false,
          "internalType": "string",
          "name": "nim",
          "type": "string"
        },
        {
          "indexed": false,
          "internalType": "address",
          "name": "student",
          "type": "address"
        },
        {
          "indexed": false,
          "internalType": "uint256",
          "name": "expiryDate",
          "type": "uint256"
        }
      ],
      "name": "StudentIDIssued",
      "type": "event"
    },
    {
      "anonymous": false,
      "inputs": [
        {
          "indexed": true,
          "internalType": "uint256",
          "name": "tokenId",
          "type": "uint256"
        },
        {
          "indexed": false,
          "internalType": "uint256",
          "name": "newExpiryDate",
          "type": "uint256"
        }
      ],
      "name": "StudentIDRenewed",
      "type": "event"
    },
    {
      "anonymous": false,
      "inputs": [
        {
          "indexed": true,
          "internalType": "uint256",
          "name": "tokenId",
          "type": "uint256"
        },
        {
          "indexed": false,
          "internalType": "bool",
          "name": "isActive",
          "type": "bool"
        }
      ],
      "name": "StudentStatusUpdated",
      "type": "event"
    },
    {
      "anonymous": false,
      "inputs": [
        {
          "indexed": true,
          "internalType": "address",
          "name": "from",
          "type": "address"
        },
        {
          "indexed": true,
          "internalType": "address",
          "name": "to",
          "type": "address"
        },
        {
          "indexed": true,
          "internalType": "uint256",
          "name": "tokenId",
          "type": "uint256"
        }
      ],
      "name": "Transfer",
      "type": "event"
    },
    {
      "inputs": [
        {
          "internalType": "address",
          "name": "",
          "type": "address"
        }
      ],
      "name": "addressToTokenId",
      "outputs": [
        {
          "internalType": "uint256",
          "name": "",
          "type": "uint256"
        }
      ],
      "stateMutability": "view",
      "type": "function"
    },
    {
      "inputs": [
        {
          "internalType": "address",
          "name": "to",
          "type": "address"
        },
        {
          "internalType": "uint256",
          "name": "tokenId",
          "type": "uint256"
        }
      ],
      "name": "approve",
      "outputs": [],
      "stateMutability": "nonpayable",
      "type": "function"
    },
    {
      "inputs": [
        {
          "internalType": "address",
          "name": "owner",
          "type": "address"
        }
      ],
      "name": "balanceOf",
      "outputs": [
        {
          "internalType": "uint256",
          "name": "",
          "type": "uint256"
        }
      ],
      "stateMutability": "view",
      "type": "function"
    },
    {
      "inputs": [
        {
          "internalType": "uint256",
          "name": "tokenId",
          "type": "uint256"
        }
      ],
      "name": "burnExpired",
      "outputs": [],
      "stateMutability": "nonpayable",
      "type": "function"
    },
    {
      "inputs": [
        {
          "internalType": "uint256",
          "name": "tokenId",
          "type": "uint256"
        }
      ],
      "name": "getApproved",
      "outputs": [
        {
          "internalType": "address",
          "name": "",
          "type": "address"
        }
      ],
      "stateMutability": "view",
      "type": "function"
    },
    {
      "inputs": [
        {
          "internalType": "string",
          "name": "nim",
          "type": "string"
        }
      ],
      "name": "getStudentByNIM",
      "outputs": [
        {
          "internalType": "address",
          "name": "owner",
          "type": "address"
        },
        {
          "internalType": "uint256",
          "name": "tokenId",
          "type": "uint256"
        },
        {
          "components": [
            {
              "internalType": "string",
              "name": "nim",
              "type": "string"
            },
            {
              "internalType": "string",
              "name": "name",
              "type": "string"
            },
            {
              "internalType": "string",
              "name": "major",
              "type": "string"
            },
            {
              "internalType": "uint256",
              "name": "enrollmentYear",
              "type": "uint256"
            },
            {
              "internalType": "uint256",
              "name": "expiryDate",
              "type": "uint256"
            },
            {
              "internalType": "bool",
              "name": "isActive",
              "type": "bool"
            },
            {
              "internalType": "uint8",
              "name": "semester",
              "type": "uint8"
            }
          ],
          "internalType": "struct StudentID.StudentData",
          "name": "data",
          "type": "tuple"
        }
      ],
      "stateMutability": "view",
      "type": "function"
    },
    {
      "inputs": [
        {
          "internalType": "address",
          "name": "owner",
          "type": "address"
        },
        {
          "internalType": "address",
          "name": "operator",
          "type": "address"
        }
      ],
      "name": "isApprovedForAll",
      "outputs": [
        {
          "internalType": "bool",
          "name": "",
          "type": "bool"
        }
      ],
      "stateMutability": "view",
      "type": "function"
    },
    {
      "inputs": [
        {
          "internalType": "uint256",
          "name": "tokenId",
          "type": "uint256"
        }
      ],
      "name": "isExpired",
      "outputs": [
        {
          "internalType": "bool",
          "name": "",
          "type": "bool"
        }
      ],
      "stateMutability": "view",
      "type": "function"
    },
    {
      "inputs": [
        {
          "internalType": "address",
          "name": "to",
          "type": "address"
        },
        {
          "internalType": "string",
          "name": "nim",
          "type": "string"
        },
        {
          "internalType": "string",
          "name": "name",
          "type": "string"
        },
        {
          "internalType": "string",
          "name": "major",
          "type": "string"
        },
        {
          "internalType": "string",
          "name": "uri",
          "type": "string"
        }
      ],
      "name": "issueStudentID",
      "outputs": [],
      "stateMutability": "nonpayable",
      "type": "function"
    },
    {
      "inputs": [],
      "name": "name",
      "outputs": [
        {
          "internalType": "string",
          "name": "",
          "type": "string"
        }
      ],
      "stateMutability": "view",
      "type": "function"
    },
    {
      "inputs": [
        {
          "internalType": "string",
          "name": "",
          "type": "string"
        }
      ],
      "name": "nimToTokenId",
      "outputs": [
        {
          "internalType": "uint256",
          "name": "",
          "type": "uint256"
        }
      ],
      "stateMutability": "view",
      "type": "function"
    },
    {
      "inputs": [],
      "name": "owner",
      "outputs": [
        {
          "internalType": "address",
          "name": "",
          "type": "address"
        }
      ],
      "stateMutability": "view",
      "type": "function"
    },
    {
      "inputs": [
        {
          "internalType": "uint256",
          "name": "tokenId",
          "type": "uint256"
        }
      ],
      "name": "ownerOf",
      "outputs": [
        {
          "internalType": "address",
          "name": "",
          "type": "address"
        }
      ],
      "stateMutability": "view",
      "type": "function"
    },
    {
      "inputs": [
        {
          "internalType": "uint256",
          "name": "tokenId",
          "type": "uint256"
        }
      ],
      "name": "renewStudentID",
      "outputs": [],
      "stateMutability": "nonpayable",
      "type": "function"
    },
    {
      "inputs": [],
      "name": "renounceOwnership",
      "outputs": [],
      "stateMutability": "nonpayable",
      "type": "function"
    },
    {
      "inputs": [
        {
          "internalType": "address",
          "name": "from",
          "type": "address"
        },
        {
          "internalType": "address",
          "name": "to",
          "type": "address"
        },
        {
          "internalType": "uint256",
          "name": "tokenId",
          "type": "uint256"
        }
      ],
      "name": "safeTransferFrom",
      "outputs": [],
      "stateMutability": "nonpayable",
      "type": "function"
    },
    {
      "inputs": [
        {
          "internalType": "address",
          "name": "from",
          "type": "address"
        },
        {
          "internalType": "address",
          "name": "to",
          "type": "address"
        },
        {
          "internalType": "uint256",
          "name": "tokenId",
          "type": "uint256"
        },
        {
          "internalType": "bytes",
          "name": "data",
          "type": "bytes"
        }
      ],
      "name": "safeTransferFrom",
      "outputs": [],
      "stateMutability": "nonpayable",
      "type": "function"
    },
    {
      "inputs": [
        {
          "internalType": "address",
          "name": "operator",
          "type": "address"
        },
        {
          "internalType": "bool",
          "name": "approved",
          "type": "bool"
        }
      ],
      "name": "setApprovalForAll",
      "outputs": [],
      "stateMutability": "nonpayable",
      "type": "function"
    },
    {
      "inputs": [
        {
          "internalType": "uint256",
          "name": "",
          "type": "uint256"
        }
      ],
      "name": "studentData",
      "outputs": [
        {
          "internalType": "string",
          "name": "nim",
          "type": "string"
        },
        {
          "internalType": "string",
          "name": "name",
          "type": "string"
        },
        {
          "internalType": "string",
          "name": "major",
          "type": "string"
        },
        {
          "internalType": "uint256",
          "name": "enrollmentYear",
          "type": "uint256"
        },
        {
          "internalType": "uint256",
          "name": "expiryDate",
          "type": "uint256"
        },
        {
          "internalType": "bool",
          "name": "isActive",
          "type": "bool"
        },
        {
          "internalType": "uint8",
          "name": "semester",
          "type": "uint8"
        }
      ],
      "stateMutability": "view",
      "type": "function"
    },
    {
      "inputs": [
        {
          "internalType": "bytes4",
          "name": "interfaceId",
          "type": "bytes4"
        }
      ],
      "name": "supportsInterface",
      "outputs": [
        {
          "internalType": "bool",
          "name": "",
          "type": "bool"
        }
      ],
      "stateMutability": "view",
      "type": "function"
    },
    {
      "inputs": [],
      "name": "symbol",
      "outputs": [
        {
          "internalType": "string",
          "name": "",
          "type": "string"
        }
      ],
      "stateMutability": "view",
      "type": "function"
    },
    {
      "inputs": [
        {
          "internalType": "uint256",
          "name": "tokenId",
          "type": "uint256"
        }
      ],
      "name": "tokenURI",
      "outputs": [
        {
          "internalType": "string",
          "name": "",
          "type": "string"
        }
      ],
      "stateMutability": "view",
      "type": "function"
    },
    {
      "inputs": [
        {
          "internalType": "address",
          "name": "from",
          "type": "address"
        },
        {
          "internalType": "address",
          "name": "to",
          "type": "address"
        },
        {
          "internalType": "uint256",
          "name": "tokenId",
          "type": "uint256"
        }
      ],
      "name": "transferFrom",
      "outputs": [],
      "stateMutability": "nonpayable",
      "type": "function"
    },
    {
      "inputs": [
        {
          "internalType": "address",
          "name": "newOwner",
          "type": "address"
        }
      ],
      "name": "transferOwnership",
      "outputs": [],
      "stateMutability": "nonpayable",
      "type": "function"
    },
    {
      "inputs": [
        {
          "internalType": "uint256",
          "name": "tokenId",
          "type": "uint256"
        },
        {
          "internalType": "bool",
          "name": "isActive",
          "type": "bool"
        }
      ],
      "name": "updateStudentStatus",
      "outputs": [],
      "stateMutability": "nonpayable",
      "type": "function"
    }
  ],
  "bytecode": "0x608060405234801561001057600080fd5b506040518060400160405280601581526020017f53747564656e74204964656e74697479204361726400000000000000000000008152506040518060400160405280600381526020016214d25160ea1b81525081600090816100729190610192565b50600161007f8282610192565b50505061009861009361009d60201b60201c565b6100a1565b610250565b3390565b600780546001600160a01b038381166001600160a01b0319831681179093556040519116919082907f8be0079c531659141344cd1fd0a4f28419497f9722a3daafe3b4186f6b6457e090600090a35050565b634e487b7160e01b600052604160045260246000fd5b600181811c9082168061011d57607f821691505b60208210810361013d57634e487b7160e01b600052602260045260246000fd5b50919050565b601f82111561018d57806000526020600020601f840160051c8101602085101561016a5750805b601f840160051c820191505b8181101561018a5760008155600101610176565b50505b505050565b81516001600160401b038111156101ab576101ab6100f3565b6101bf816101b98454610109565b84610143565b6020601f8211600181146101f357600083156101db5750848201515b600019600385901b1c1916600184901b17845561018a565b600084815260208120601f198516915b828110156102235787850151825560209485019460019092019101610203565b50848210156102415786840151600019600387901b60f8161c191681555b50505050600190811b01905550565b612a1a8061025f6000396000f3fe608060405234801561001057600080fd5b50600436106101735760003560e01c80638da5cb5b116100de578063c87b56dd11610097578063dc36af5111610071578063dc36af511461036f578063e8f748ba1461039a578063e985e9c5146103ad578063f2fde38b146103c057600080fd5b8063c87b56dd14610324578063d098769b14610337578063d9548e531461034a57600080fd5b80638da5cb5b146102bf57806395d89b41146102d0578063a22cb465146102d8578063aeb57088146102eb578063b88d4fde146102fe578063c73ffcc01461031157600080fd5b806334f0eb1a1161013057806334f0eb1a1461022a57806342842e0e146102505780636352211e146102635780636511bf2e1461027657806370a08231146102a4578063715018a6146102b757600080fd5b806301ffc9a71461017857806306fdde03146101a0578063081812fc146101b5578063095ea7b3146101e057806323b872dd146101f55780632ff4d15814610208575b600080fd5b61018b610186366004612185565b6103d3565b60405190151581526020015b60405180910390f35b6101a86103e4565b60405161019791906121f2565b6101c86101c3366004612205565b610476565b6040516001600160a01b039091168152602001610197565b6101f36101ee36600461223a565b61049d565b005b6101f3610203366004612264565b6105b7565b61021b610216366004612351565b6105e8565b60405161019793929190612386565b61023d610238366004612205565b610906565b6040516101979796959493929190612430565b6101f361025e366004612264565b610ae0565b6101c8610271366004612205565b610afb565b610296610284366004612493565b600b6020526000908152604090205481565b604051908152602001610197565b6102966102b2366004612493565b610b5b565b6101f3610be1565b6007546001600160a01b03166101c8565b6101a8610bf5565b6101f36102e63660046124be565b610c04565b6101f36102f93660046124f1565b610c13565b6101f361030c366004612514565b610d0f565b6101f361031f366004612590565b610d47565b6101a8610332366004612205565b610f99565b6101f3610345366004612205565b610fa4565b61018b610358366004612205565b600090815260096020526040902060040154421190565b61029661037d366004612351565b8051602081830181018051600a8252928201919093012091525481565b6101f36103a8366004612205565b61118f565b61018b6103bb366004612661565b6112dd565b6101f36103ce366004612493565b61130b565b60006103de82611384565b92915050565b6060600080546103f39061268b565b80601f016020809104026020016040519081016040528092919081815260200182805461041f9061268b565b801561046c5780601f106104415761010080835404028352916020019161046c565b820191906000526020600020905b81548152906001019060200180831161044f57829003601f168201915b5050505050905090565b6000610481826113a9565b506000908152600460205260409020546001600160a01b031690565b60006104a882610afb565b9050806001600160a01b0316836001600160a01b03160361051a5760405162461bcd60e51b815260206004820152602160248201527f4552433732313a20617070726f76616c20746f2063757272656e74206f776e656044820152603960f91b60648201526084015b60405180910390fd5b336001600160a01b0382161480610536575061053681336112dd565b6105a85760405162461bcd60e51b815260206004820152603d60248201527f4552433732313a20617070726f76652063616c6c6572206973206e6f7420746f60448201527f6b656e206f776e6572206f7220617070726f76656420666f7220616c6c0000006064820152608401610511565b6105b28383611408565b505050565b6105c13382611476565b6105dd5760405162461bcd60e51b8152600401610511906126c5565b6105b28383836114d5565b6000806106306040518060e001604052806060815260200160608152602001606081526020016000815260200160008152602001600015158152602001600060ff1681525090565b6000600a856040516106429190612712565b9081526020016040518091039020549050806000036106995760405162461bcd60e51b81526020600482015260136024820152722724a6903a34b230b5903a32b93230b33a30b960691b6044820152606401610511565b60006106a482610afb565b6001600160a01b0316036106e95760405162461bcd60e51b815260206004820152600c60248201526b546f6b656e2068616e67757360a01b6044820152606401610511565b6106f281610afb565b9350809250600960008281526020019081526020016000206040518060e00160405290816000820180546107259061268b565b80601f01602080910402602001604051908101604052809291908181526020018280546107519061268b565b801561079e5780601f106107735761010080835404028352916020019161079e565b820191906000526020600020905b81548152906001019060200180831161078157829003601f168201915b505050505081526020016001820180546107b79061268b565b80601f01602080910402602001604051908101604052809291908181526020018280546107e39061268b565b80156108305780601f1061080557610100808354040283529160200191610830565b820191906000526020600020905b81548152906001019060200180831161081357829003601f168201915b505050505081526020016002820180546108499061268b565b80601f01602080910402602001604051908101604052809291908181526020018280546108759061268b565b80156108c25780601f10610897576101008083540402835291602001916108c2565b820191906000526020600020905b8154815290600101906020018083116108a557829003601f168201915b5050509183525050600382015460208201526004820154604082015260059091015460ff808216151560608401526101009091041660809091015293959294505050565b6009602052600090815260409020805481906109219061268b565b80601f016020809104026020016040519081016040528092919081815260200182805461094d9061268b565b801561099a5780601f1061096f5761010080835404028352916020019161099a565b820191906000526020600020905b81548152906001019060200180831161097d57829003601f168201915b5050505050908060010180546109af9061268b565b80601f01602080910402602001604051908101604052809291908181526020018280546109db9061268b565b8015610a285780601f106109fd57610100808354040283529160200191610a28565b820191906000526020600020905b815481529060010190602001808311610a0b57829003601f168201915b505050505090806002018054610a3d9061268b565b80601f0160208091040260200160405190810160405280929190818152602001828054610a699061268b565b8015610ab65780601f10610a8b57610100808354040283529160200191610ab6565b820191906000526020600020905b815481529060010190602001808311610a9957829003601f168201915b50505050600383015460048401546005909401549293909290915060ff8082169161010090041687565b6105b283838360405180602001604052806000815250610d0f565b6000818152600260205260408120546001600160a01b0316806103de5760405162461bcd60e51b8152602060048201526018602482015277115490cdcc8c4e881a5b9d985b1a59081d1bdad95b88125160421b6044820152606401610511565b60006001600160a01b038216610bc55760405162461bcd60e51b815260206004820152602960248201527f4552433732313a2061646472657373207a65726f206973206e6f7420612076616044820152683634b21037bbb732b960b91b6064820152608401610511565b506001600160a01b031660009081526003602052604090205490565b610be9611646565b610bf360006116a0565b565b6060600180546103f39061268b565b610c0f3383836116f2565b5050565b610c1b611646565b6000610c2683610afb565b6001600160a01b031603610c4c5760405162461bcd60e51b81526004016105119061272e565b60008281526009602052604090206005015481151560ff909116151503610cb55760405162461bcd60e51b815260206004820152601960248201527f53746174757320737564616820646970657262616861727569000000000000006044820152606401610511565b600082815260096020908152604091829020600501805460ff1916841515908117909155915191825283917ffceaee20ea0c6a7695d4098e27a1c6d0a5d39ae55cec3680a7cc4f87c6c99ae4910160405180910390a25050565b610d193383611476565b610d355760405162461bcd60e51b8152600401610511906126c5565b610d41848484846117c0565b50505050565b610d4f611646565b600a84604051610d5f9190612712565b908152602001604051809103902054600014610dad5760405162461bcd60e51b815260206004820152600d60248201526c4e494d2053756461682041646160981b6044820152606401610511565b6001600160a01b0385166000908152600b602052604090205415610e135760405162461bcd60e51b815260206004820152601a60248201527f4164647265737320696e692073756461682070756e79612049440000000000006044820152606401610511565b6008546000610e2642630784ce0061276d565b9050610e3287836117f3565b610e3c828461198c565b6040805160e081018252878152602080820188905281830187905242606083015260808201849052600160a0830181905260c0830152600085815260099091529190912081518190610e8e90826127ce565b5060208201516001820190610ea390826127ce565b5060408201516002820190610eb890826127ce565b50606082015160038201556080820151600482015560a08201516005909101805460c09093015160ff166101000261ff00199215159290921661ffff19909316929092171790556040518290600a90610f12908990612712565b9081526040805160209281900383019020929092556001600160a01b0389166000908152600b9091529081208390556008805491610f4f8361288d565b9190505550817fd546331ab71c191daf526c220c40da4f06e37152c6f63efe16cd71155525efc4878984604051610f88939291906128a6565b60405180910390a250505050505050565b60606103de82611a57565b6000610faf82610afb565b6001600160a01b031603610fd55760405162461bcd60e51b81526004016105119061272e565b60008181526009602052604090206004015442116110275760405162461bcd60e51b815260206004820152600f60248201526e49442062656c756d2065787069726560881b6044820152606401610511565b600081815260096020526040812080546110409061268b565b80601f016020809104026020016040519081016040528092919081815260200182805461106c9061268b565b80156110b95780601f1061108e576101008083540402835291602001916110b9565b820191906000526020600020905b81548152906001019060200180831161109c57829003601f168201915b5050505050905060006110cb83610afb565b90506110d683611b5f565b6000838152600960205260408120906110ef8282612121565b6110fd600183016000612121565b61110b600283016000612121565b506000600382018190556004820155600501805461ffff19169055604051600a90611137908490612712565b90815260408051602092819003830181206000908190556001600160a01b0385168152600b90935290822082905584917f2509da5bc6b9c58fc086ac8815d0affdd01277d4af14a42b0364a6f85b97ef2a91a2505050565b611197611646565b60006111a282610afb565b6001600160a01b0316036111c85760405162461bcd60e51b81526004016105119061272e565b60008181526009602052604090206005015460ff1661121d5760405162461bcd60e51b815260206004820152601160248201527029b4b9bbb0903a34b230b59030b5ba34b360791b6044820152606401610511565b6000818152600960205260408120600401805462ed4e00929061124190849061276d565b909155505060008181526009602052604090206005018054600191908290611272908290610100900460ff166128d4565b92506101000a81548160ff021916908360ff160217905550807fc5fe00810edcaa24680b1ba35d08840e552667af57ac89827c4e695e98153d7860096000848152602001908152602001600020600401546040516112d291815260200190565b60405180910390a250565b6001600160a01b03918216600090815260056020908152604080832093909416825291909152205460ff1690565b611313611646565b6001600160a01b0381166113785760405162461bcd60e51b815260206004820152602660248201527f4f776e61626c653a206e6577206f776e657220697320746865207a65726f206160448201526564647265737360d01b6064820152608401610511565b611381816116a0565b50565b60006001600160e01b03198216632483248360e11b14806103de57506103de82611ca0565b6000818152600260205260409020546001600160a01b03166113815760405162461bcd60e51b8152602060048201526018602482015277115490cdcc8c4e881a5b9d985b1a59081d1bdad95b88125160421b6044820152606401610511565b600081815260046020526040902080546001600160a01b0319166001600160a01b038416908117909155819061143d82610afb565b6001600160a01b03167f8c5be1e5ebec7d5bd14f71427d1e84f3dd0314c0f7b2291e5b200ac8c7c3b92560405160405180910390a45050565b60008061148283610afb565b9050806001600160a01b0316846001600160a01b031614806114a957506114a981856112dd565b806114cd5750836001600160a01b03166114c284610476565b6001600160a01b0316145b949350505050565b826001600160a01b03166114e882610afb565b6001600160a01b03161461150e5760405162461bcd60e51b8152600401610511906128ed565b6001600160a01b0382166115705760405162461bcd60e51b8152602060048201526024808201527f4552433732313a207472616e7366657220746f20746865207a65726f206164646044820152637265737360e01b6064820152608401610511565b61157d8383836001611cf0565b826001600160a01b031661159082610afb565b6001600160a01b0316146115b65760405162461bcd60e51b8152600401610511906128ed565b600081815260046020908152604080832080546001600160a01b03199081169091556001600160a01b0387811680865260038552838620805460001901905590871680865283862080546001019055868652600290945282852080549092168417909155905184937fddf252ad1be2c89b69c2b068fc378daa952ba7f163c4a11628f55a4df523b3ef91a4505050565b6007546001600160a01b03163314610bf35760405162461bcd60e51b815260206004820181905260248201527f4f776e61626c653a2063616c6c6572206973206e6f7420746865206f776e65726044820152606401610511565b600780546001600160a01b038381166001600160a01b0319831681179093556040519116919082907f8be0079c531659141344cd1fd0a4f28419497f9722a3daafe3b4186f6b6457e090600090a35050565b816001600160a01b0316836001600160a01b0316036117535760405162461bcd60e51b815260206004820152601960248201527f4552433732313a20617070726f766520746f2063616c6c6572000000000000006044820152606401610511565b6001600160a01b03838116600081815260056020908152604080832094871680845294825291829020805460ff191686151590811790915591519182527f17307eab39ab6107e8899845ad3d59bd9653f200f220920489ca2b5937696c31910160405180910390a3505050565b6117cb8484846114d5565b6117d784848484611d5e565b610d415760405162461bcd60e51b815260040161051190612932565b6001600160a01b0382166118495760405162461bcd60e51b815260206004820181905260248201527f4552433732313a206d696e7420746f20746865207a65726f20616464726573736044820152606401610511565b6000818152600260205260409020546001600160a01b0316156118ae5760405162461bcd60e51b815260206004820152601c60248201527f4552433732313a20746f6b656e20616c7265616479206d696e746564000000006044820152606401610511565b6118bc600083836001611cf0565b6000818152600260205260409020546001600160a01b0316156119215760405162461bcd60e51b815260206004820152601c60248201527f4552433732313a20746f6b656e20616c7265616479206d696e746564000000006044820152606401610511565b6001600160a01b038216600081815260036020908152604080832080546001019055848352600290915280822080546001600160a01b0319168417905551839291907fddf252ad1be2c89b69c2b068fc378daa952ba7f163c4a11628f55a4df523b3ef908290a45050565b6000828152600260205260409020546001600160a01b0316611a075760405162461bcd60e51b815260206004820152602e60248201527f45524337323155524953746f726167653a2055524920736574206f66206e6f6e60448201526d32bc34b9ba32b73a103a37b5b2b760911b6064820152608401610511565b6000828152600660205260409020611a1f82826127ce565b506040518281527ff8e1a15aba9398e019f0b49df1a4fde98ee17ae345cb5f6b5e2c27f5033e8ce79060200160405180910390a15050565b6060611a62826113a9565b60008281526006602052604081208054611a7b9061268b565b80601f0160208091040260200160405190810160405280929190818152602001828054611aa79061268b565b8015611af45780601f10611ac957610100808354040283529160200191611af4565b820191906000526020600020905b815481529060010190602001808311611ad757829003601f168201915b505050505090506000611b1260408051602081019091526000815290565b90508051600003611b24575092915050565b815115611b56578082604051602001611b3e929190612984565b60405160208183030381529060405292505050919050565b6114cd84611e5f565b60008181526009602052604081208054611b789061268b565b80601f0160208091040260200160405190810160405280929190818152602001828054611ba49061268b565b8015611bf15780601f10611bc657610100808354040283529160200191611bf1565b820191906000526020600020905b815481529060010190602001808311611bd457829003601f168201915b505050505090506000611c0383610afb565b9050611c0e83611ed3565b600083815260096020526040812090611c278282612121565b611c35600183016000612121565b611c43600283016000612121565b506000600382018190556004820155600501805461ffff19169055604051600a90611c6f908490612712565b90815260408051602092819003830190206000908190556001600160a01b03939093168352600b9091528120555050565b60006001600160e01b031982166380ac58cd60e01b1480611cd157506001600160e01b03198216635b5e139f60e01b145b806103de57506301ffc9a760e01b6001600160e01b03198316146103de565b6001600160a01b0384161580611d0d57506001600160a01b038316155b611d595760405162461bcd60e51b815260206004820152601760248201527f534944206973206e6f6e2d7472616e7366657261626c650000000000000000006044820152606401610511565b610d41565b60006001600160a01b0384163b15611e5457604051630a85bd0160e11b81526001600160a01b0385169063150b7a0290611da29033908990889088906004016129b3565b6020604051808303816000875af1925050508015611ddd575060408051601f3d908101601f19168201909252611dda918101906129f0565b60015b611e3a573d808015611e0b576040519150601f19603f3d011682016040523d82523d6000602084013e611e10565b606091505b508051600003611e325760405162461bcd60e51b815260040161051190612932565b805181602001fd5b6001600160e01b031916630a85bd0160e11b1490506114cd565b506001949350505050565b6060611e6a826113a9565b6000611e8160408051602081019091526000815290565b90506000815111611ea15760405180602001604052806000815250611ecc565b80611eab84611f13565b604051602001611ebc929190612984565b6040516020818303038152906040525b9392505050565b611edc81611fa6565b60008181526006602052604090208054611ef59061268b565b15905061138157600081815260066020526040812061138191612121565b60606000611f2083612049565b600101905060008167ffffffffffffffff811115611f4057611f406122a1565b6040519080825280601f01601f191660200182016040528015611f6a576020820181803683370190505b5090508181016020015b600019016f181899199a1a9b1b9c1cb0b131b232b360811b600a86061a8153600a8504945084611f7457509392505050565b6000611fb182610afb565b9050611fc1816000846001611cf0565b611fca82610afb565b600083815260046020908152604080832080546001600160a01b03199081169091556001600160a01b0385168085526003845282852080546000190190558785526002909352818420805490911690555192935084927fddf252ad1be2c89b69c2b068fc378daa952ba7f163c4a11628f55a4df523b3ef908390a45050565b60008072184f03e93ff9f4daa797ed6e38ed64bf6a1f0160401b83106120885772184f03e93ff9f4daa797ed6e38ed64bf6a1f0160401b830492506040015b6d04ee2d6d415b85acef810000000083106120b4576d04ee2d6d415b85acef8100000000830492506020015b662386f26fc1000083106120d257662386f26fc10000830492506010015b6305f5e10083106120ea576305f5e100830492506008015b61271083106120fe57612710830492506004015b60648310612110576064830492506002015b600a83106103de5760010192915050565b50805461212d9061268b565b6000825580601f1061213d575050565b601f01602090049060005260206000209081019061138191905b8082111561216b5760008155600101612157565b5090565b6001600160e01b03198116811461138157600080fd5b60006020828403121561219757600080fd5b8135611ecc8161216f565b60005b838110156121bd5781810151838201526020016121a5565b50506000910152565b600081518084526121de8160208601602086016121a2565b601f01601f19169290920160200192915050565b602081526000611ecc60208301846121c6565b60006020828403121561221757600080fd5b5035919050565b80356001600160a01b038116811461223557600080fd5b919050565b6000806040838503121561224d57600080fd5b6122568361221e565b946020939093013593505050565b60008060006060848603121561227957600080fd5b6122828461221e565b92506122906020850161221e565b929592945050506040919091013590565b634e487b7160e01b600052604160045260246000fd5b60008067ffffffffffffffff8411156122d2576122d26122a1565b50604051601f19601f85018116603f0116810181811067ffffffffffffffff82111715612301576123016122a1565b60405283815290508082840185101561231957600080fd5b83836020830137600060208583010152509392505050565b600082601f83011261234257600080fd5b611ecc838335602085016122b7565b60006020828403121561236357600080fd5b813567ffffffffffffffff81111561237a57600080fd5b6114cd84828501612331565b60018060a01b0384168152826020820152606060408201526000825160e060608401526123b76101408401826121c6565b90506020840151605f198483030160808501526123d482826121c6565b9150506040840151605f198483030160a08501526123f282826121c6565b915050606084015160c0840152608084015160e084015260a0840151151561010084015260ff60c08501511661012084015280915050949350505050565b60e08152600061244360e083018a6121c6565b8281036020840152612455818a6121c6565b9050828103604084015261246981896121c6565b60608401979097525050608081019390935290151560a083015260ff1660c0909101529392505050565b6000602082840312156124a557600080fd5b611ecc8261221e565b8035801515811461223557600080fd5b600080604083850312156124d157600080fd5b6124da8361221e565b91506124e8602084016124ae565b90509250929050565b6000806040838503121561250457600080fd5b823591506124e8602084016124ae565b6000806000806080858703121561252a57600080fd5b6125338561221e565b93506125416020860161221e565b925060408501359150606085013567ffffffffffffffff81111561256457600080fd5b8501601f8101871361257557600080fd5b612584878235602084016122b7565b91505092959194509250565b600080600080600060a086880312156125a857600080fd5b6125b18661221e565b9450602086013567ffffffffffffffff8111156125cd57600080fd5b6125d988828901612331565b945050604086013567ffffffffffffffff8111156125f657600080fd5b61260288828901612331565b935050606086013567ffffffffffffffff81111561261f57600080fd5b61262b88828901612331565b925050608086013567ffffffffffffffff81111561264857600080fd5b61265488828901612331565b9150509295509295909350565b6000806040838503121561267457600080fd5b61267d8361221e565b91506124e86020840161221e565b600181811c9082168061269f57607f821691505b6020821081036126bf57634e487b7160e01b600052602260045260246000fd5b50919050565b6020808252602d908201527f4552433732313a2063616c6c6572206973206e6f7420746f6b656e206f776e6560408201526c1c881bdc88185c1c1c9bdd9959609a1b606082015260800190565b600082516127248184602087016121a2565b9190910192915050565b6020808252600f908201526e546f6b656e20746964616b2061646160881b604082015260600190565b634e487b7160e01b600052601160045260246000fd5b808201808211156103de576103de612757565b601f8211156105b257806000526020600020601f840160051c810160208510156127a75750805b601f840160051c820191505b818110156127c757600081556001016127b3565b5050505050565b815167ffffffffffffffff8111156127e8576127e86122a1565b6127fc816127f6845461268b565b84612780565b6020601f82116001811461283057600083156128185750848201515b600019600385901b1c1916600184901b1784556127c7565b600084815260208120601f198516915b828110156128605787850151825560209485019460019092019101612840565b508482101561287e5786840151600019600387901b60f8161c191681555b50505050600190811b01905550565b60006001820161289f5761289f612757565b5060010190565b6060815260006128b960608301866121c6565b6001600160a01b039490941660208301525060400152919050565b60ff81811683821601908111156103de576103de612757565b60208082526025908201527f4552433732313a207472616e736665722066726f6d20696e636f72726563742060408201526437bbb732b960d91b606082015260800190565b60208082526032908201527f4552433732313a207472616e7366657220746f206e6f6e20455243373231526560408201527131b2b4bb32b91034b6b83632b6b2b73a32b960711b606082015260800190565b600083516129968184602088016121a2565b8351908301906129aa8183602088016121a2565b01949350505050565b6001600160a01b03858116825284166020820152604081018390526080606082018190526000906129e6908301846121c6565b9695505050505050565b600060208284031215612a0257600080fd5b8151611ecc8161216f56fea164736f6c634300081c000a",
  "linkReferences": {},
  "deployedLinkReferences": {}
}